:10101500477265656E686F757365205465737400F6
:1010250054454D503A200025352E3166000D0A00F5
:10103500DF430057494E445F4F50454E004C4947EA
:1010450048545F4F50454E0057494E445F434C4FFF
:101055005345004C494748545F434C4F5345005056
:10106500554D505F4F50454E0050554D505F434CC8
:041075004F53450090
:0912E70001410001230001220075
:0611E7008B468A4789488F
:1011ED00E4FFAB46AA47A9488F827583001205FD1F
:1011FD006014AE070F8E827583001205FDF59930D0
:06120D0099FDC29980DC8E
:0112130022B8
:100C9400E4F545F544F543F542C2A7C2A6C2A575DD
:100CA4009850758920F587758BFD758DFD75A89114
:100CB400D288D28E1211B77BFF7A107915E4FDFF2A
:100CC4001210D17BFF7A107925E4FD7F011210D137
:100CD4001211227F207E031212AD121122EF6070D6
:100CE400E50AAD09FCEC120131E4FBFA7980783DA8
:100CF4001200268F458E448D438C427549FF754AF8
:100D040010754B2C8F4F8E4E8D4D8C4C7B007A0082
:100D140079301208817549FF754A10754B327B0092
:100D24007A0079301210791211E77549FF754A106B
:100D3400754B357B007A0079301210797B007A008C
:100D440079307D077F011210D17F327E001212ADFF
:100D5400E5236086E4F52378247C00FD7BFF7A108C
:100D64007938120808EF7009D290C291D2A5020C0A
:100D7400DE78247C007D007BFF7A1079421208081B
:100D8400EF7009D292C293D2A6020CDE78247C00C2
:100D94007D007BFF7A10794D120808EF7009D2901C
:100DA400D291C2A5020CDE78247C007D007BFF7A00
:100DB400107958120808EF7009D292D293C2A60291
:100DC4000CDE78247C007D007BFF7A1079641208A5
:100DD40008EF7007C2A4D2A7020CDE78247C007D41
:100DE400007BFF7A10796E120808EF6003020CDEB4
:070DF400D2A4C2A7020CDE2D
:03000300020EFBEF
:100EFB00C0E0C0F0C083C082C0D075D000C000C0BD
:100F0B0001C002C003C004C005C006C00720951B6A
:100F1B007F0A7E001212AD20951130A508D290D217
:100F2B0091C2A58006D290C291D2A520961B7F0AB2
:100F3B007E001212AD20961130A608D292D293C227
:100F4B00A68006D292C293D2A62097177F0A7E0064
:100F5B001212AD20970D30A706D2A4C2A78004C2EF
:100F6B00A4D2A7D007D006D005D004D003D002D08E
:0E0F7B0001D000D0D0D082D083D0F0D0E032B0
:0300230002116F58
:0B116F00C0E0C0D075D000C000C00779
:10117A00309831C298AF99BF24028025EF640D6080
:10118A0023BF0A08752200752301801874242522BA
:10119A00F8A607052274242522F87600E522B40B66
:0411AA0003752200A7
:0911AE00D007D000D0D0D0E0320F
:02001E0080C0A0
:101297007580FFC2A0D2A1D2A200000000AF80C219
:0512A700A2EF20E7EEBC
:0112AC00221F
:10000600AE07121297C2A0C2A18E8000000000D2D5
:08001600A200000000C2A222BA
:10127F00AE07121297D2A0C2A18E8000000000D23A
:08128F00A200000000C2A2222F
:1011B7007F381200067F017E001212AD7F011200F8
:1011C700067F017E001212AD7F061200067F017EA8
:1011D700001212AD7F0C1200067F017E000212ADD5
:0A10D1008F468D478B488A49894AF3
:1010DB00E4FD784B7C007BFF7A00791EFE7F0212C9
:1010EB0005BE744B2546F8E64547FF120006E4FDA6
:1010FB00AB48AA49A94A8D827583001205FDFF6092
:10110B000712127F0DBD10E8EDC3941050087F201D
:06111B0012127F0D80F2AC
:0111210022AB
:100DFB00005EBCE2613FDD83C29C7E20A3FD1F41F0
:100E0B009DC3217FFCA2401E5F01E3BD3E6082DCDF
:100E1B00237D9FC1421CFEA0E1BF5D0380DE3C62CF
:100E2B00BEE0025CDF81633D7C22C09E1D43A1FFBF
:100E3B004618FAA427799BC584DA3866E5BB5907AF
:100E4B00DB856739BAE406581947A5FB7826C49A9F
:100E5B00653BD987045AB8E6A7F91B45C6987A248F
:100E6B00F8A6441A99C7257B3A6486D85B05E7B97F
:100E7B008CD2306EEDB3510F4E10F2AC2F7193CD6F
:100E8B00114FADF3702ECC92D38D6F31B2EC0E505F
:100E9B00AFF1134DCE90722C6D33D18F0C52B0EE4F
:100EAB00326C8ED0530DEFB1F0AE4C1291CF2D733F
:100EBB00CA947628ABF517490856B4EA6937D58B2F
:100ECB005709EBB536688AD495CB2977F4AA48161F
:100EDB00E9B7550B88D6346A2B7597C94A14F6A80F
:100EEB00742AC896154BA9F7B6E80A54D7896B35FF
:1012AD00EF1FAA0670011E4A600BE4FDEDC3947892
:0512BD0050EE0D80F76A
:0112C2002209
:0412D9007F057E000F
:0A12DD00EF1F70011E144E70F7227F
:10123B00D2A37F087E001212DDC2A37F5A7E00125A
:10124B0012DDD2A31212D9A2A3E433FD7F5A7E0082
:05125B001212DDAF05D9
:01126000226B
:10126100E4FD7C01EC6014C2A300D2A30030A30210
:0D12710042051212D9EC25E0FC80E9AF0522
:01127E00224D
:0212C300AD0775
:1012C500E4FCC2A3EDC313FD92A31212D9D2A30C61
:0312D500BC08EF63
:0112D80022F3
:1011220012123BBF01037F00227FCC1212C37F4405
:101132001212C312123B7FCC1212C37FBE1212C311
:10114200E4F508F54612126174092546F8A60774FB
:10115200092546F8E6FF1212F10546E546C3940951
:0C11620040E3E50870047F0180027F007C
:01116E00225E
:0A12F100E5086F900DFB93F508224D
:10002600EC4D6011E8497017ED33EC3304600DE4D4
:10003600FCFFFEFD22E933E8330470F802019F124B
:10004600016A58046009E4CC24815006285009024C
:1000560001A92840030201A6C0E0EB4A7044B9801A
:1000660006D0E0FB020195EF4E701CBD8008EBFF49
:10007600EAFEE9FD80EBE98DF0A4FEE5F002010F52
:10008600E9CDF9EAFEEBFFEF89F0A4FCE5F0CE89B5
:10009600F0A42EFFE435F0CD89F0A42DFEE435F072
:1000A6008067EF4E7005BD80D780C3EF8BF0A4ACA0
:1000B600F0EE8BF0A42CFCE435F0F8EF8AF0A42CDB
:1000C600E5F038FCE433CB8DF0A42CFCE5F03BF8EE
:1000D600EE8AF0A42CFCE5F038F8E433CF89F0A4DE
:1000E6002CFCE5F038CF3400CE89F0A42FFFE5F0E4
:1000F6003EFEE433C98DF0A42EFEE5F039CD8AF03C
:10010600A42FFFE5F03EFEE43DFD33D0E0FB5007B3
:100116000BBB000F0201A9EC2CFCEF33FFEE33FE04
:06012600ED33FD02018132
:10012C0075F020800E75F010800575F0087D007E4E
:10013C00007F003392D530D50312063CEC334010CF
:10014C00EF33FFEE33FEED33FDEC33FCD5F0ED2257
:0E015C00E5F0247EA2D513CC92E7CDCEFF2293
:10082500E55D2449F8E6055D2278463007027849FA
:10083500E475F00112064A0205E42000EB7F2ED292
:10084500008018EF540F2490D43440D4FF30040BAB
:10085500EF24BFB41A0050032461FFE55E60021562
:100865005E0561E5617002056030070D7846E47547
:10087500F00112064AEF02062A0212147403D20787
:100885008003E4C207F55D8B468A478948E4F55E37
:10089500F560F561E55E60077F2012086080F575FB
:1008A5005FFFC201C200C202C203C205C206C2087E
:1008B50012082EFF700D3007057F00120871AF6119
:1008C500AE6022B4255FC2D5C20412082EFF24D023
:1008D500B40A00501A75F00A785E30D50508B6FFDF
:1008E5000106C6A426F620D5047002D20380D924B9
:1008F500CFB41A00EF5004C2E5D204020B5ED20158
:1009050080C6D20080C0D20280BCD2D580BAD205C2
:1009150080B47F201208602002077401B55E004094
:10092500F1120825FF120860020899D208D2068044
:1009350095120825FB120825FA120825F94A4B706D
:100945000679557A0C7BFF20022EE55E602A7E0033
:100955008E827583001205FD60060EEE655F70F0F0
:10096500C2D5EBC0E0EAC0E0E9C0E0EE120BBED0B4
:10097500E0F9D0E0FAD0E0FB1205E4FF60AAEBC095
:10098500E0EAC0E0E9C0E0120860D0E02401F9D057
:10099500E03400FAD0E0FBE55F0460DCD55FD98088
:1009A50087D20280A2120BA160F7E55F70010412E5
:1009B50001B4A95F600DE55F600914F55F120C488D
:1009C500EF60F3EA30E702F404C3995077EAF425BF
:1009D5005F0430E701E404F55F800D120BA160C1EF
:1009E500EA055F255F1201B4EA785CF630E701E4B9
:1009F500255F04D55F0420050114120BBEE4C0E099
:100A0500120C48785CE6601320E70714F6120848D4
:100A1500802204F6D0E014C0E07F00120848E55FAC
:100A2500600712083F155F800B30050312083FD0A1
:100A3500E0020899D0E00480C5120BA160A0E55F33
:100A4500041201B4785CEAF6E55F20050260010452
:050A55002404120BBE99
:100A5A0074FF04C0E0120C48120848E55F20050242
:100A6A00600312083FD0E0B55FE87F45120852786C
:100A7A005CE67F2B30E7047F2DF404C0E0120860A7
:100A8A00D0E075F00A84C0F0120849D0E012084993
:100A9A00020899791080027908C206C2088008D231
:100AAA00D5790A8004790AC2D5E55F047002F55F38
:100ABA00E4FAFDFEFF120825FC7B08200113120848
:100ACA0025FD7B1030000A120825FE120825FF7B3F
:100ADA0020EC3382D592D55013C3E43000069FFF31
:100AEA00E49EFEE42001039DFDE49CFCE4CBF8C2F5
:100AFA0001EC700CCFCECDCCE824F8F870F3801757
:100B0A00C3EF33FFEE33FEED33FDEC33FCEB33FB87
:100B1A00994002FB0FD8E9EB300105F8D0E0C44850
:100B2A00B201C0E00AEC4D4E4F78207B0070C2EA59
:100B3A00B55F0040BCC0E0120BC0D0F0D0E020018D
:100B4A0004C4C0E0C4B201C0F0120849D0F0D5F024
:100B5A00EB02089912065A0936530A9D5809074C9E
:100B6A000903420AA14F0AA9440AA949091C430ACE
:100B7A00AF5509E0460A3E4509AA470C7550090BCC
:100B8A002D090F2E09322B0913230930200C5E2A56
:100B9A0008CB480000092AE55FB4FF03755F061217
:100BAA000825FC120825FD120825FE120825FF78E3
:100BBA00550201E3790AA2D5200314300509B910B8
:100BCA00020404B9080104A2D52006025001042037
:100BDA0002689202B55E005034C0E07F20300319EB
:100BEA007F30A20272067205500F120C17C202C29F
:100BFA0006C205C2087F30800F300503E9C0E01243
:100C0A000860300503D0E0F9D0E0B55ECC300517B6
:100C1A007F30B9100C1208607F583004077F788043
:100C2A0003B908031208603002057F2D0208607FAD
:100C3A00202008F87F2B2006F322920280CF7F0023
:100C4A00B4070050052455F8E6FF22286E756C6C2F
:100C5A002900D2011208253001F8C201785E30D588
:100C6A000108F60208CB2D504349581208252403DF
:100C7A00B405004001E4900C7093120851743A12C2
:0A0C8A000851D203755E04020A9DB2
:10016A00E9D2E7C933E833F892D5EDD2E7CD33ECDB
:07017A0033FC5002B2D52254
:10018100EC30E7100FBF000C0EBE00080DBD0004DF
:100191000BEB6014A2D5EB13FCED92E7FD2274FF8B
:1001A100FCFDFEFF22E480F8A2D574FF13FC7D80E4
:0301B100E480EFF8
:1001B400F920E72824F950037907E4F42402FB1812
:1001C400DBFDE624FB5014E9600DE4F618E604F6C2
:0F01D400B40A08E4F6D9F57401F60A22C2D5225E
:1001E300ED33EC3392D5FA602AB4FF33EDC2E77BEB
:1001F300FF60067A027908E4227A02791120D50495
:100203007A02790C224E614E002B494E46002D494D
:100213004E4600E47A08F608DAFC7B00740722E80D
:10022300C0E0ECC0E0EDC0E0EEC0E0EFC0E0EA7596
:10023300F010A4CAABF075F04DA42BFBE435F0FC31
:10024300EA2410FAEB34C5FBEC34D9FCEDC2E7FF2A
:1002530075F056A4F42411C5F0F434C58FF0A42A24
:10026300E5F03BE43CF620E7141204AED0E0FFD007
:10027300E0FED0E0FDD0E0FC1203E18014F40412B0
:1002830004AED0E0FFD0E0FED0E0FDD0E0FC1200F1
:1002930026D0E0F8E6FAEDD2E7CD33EC332482FB47
:1002A300E4C3CF33CFCE33CECD33CD33DBF37B07B4
:1002B30075F00A846004F6081B0AE5F0F6088FF06F
:1002C300740AA4FFACF08EF0740AA42CFEACF050B8
:1002D300010C8DF0740AA42CFDE435F0F608DBDE86
:0302E3007407227B
:1002E60002019FE86480F8E933E83360110460F0A6
:1002F600ED33EC337009E8FCE9FDEAFEEBFF22047E
:1003060060DED3EB9FEA9EE99DE8C2E78CF0C2F778
:1003160095F0400CE8CCF8E9CDF9EACEFAEBCFFB44
:1003260012016A85D0F05804700320D5B3E8047032
:10033600075002B2D50201A992D5EC0460F7E4CCCD
:10034600C0E0C398F8603B94186008400DD0E0FB0D
:10035600020181E4FBFAC9FC8028E830E406E4C91E
:10036600FBE4CAFCE830E305E4C9CACBFCE8540761
:100376006010F8C3E913F9EA13FAEB13FBEC13FC6C
:10038600D8F130F52FC3E49CFCEF9BFFEE9AFEED0F
:1003960099FDD0E0FBEF4E4D4C701222DB030201BB
:1003A600A6EC2CFCEF33FFEE33FEED33FDED30E72C
:1003B600EB020181EF2BFFEE3AFEED39FDD0E0FBBB
:1003C60050130BBB00030201A9ED13FDEE13FEEF64
:0803D60013FFEC13FC0201818E
:1003DE000201A9EC5D046005E85904700302019F57
:1003EE0012016A580460F6EC4860F2EC7004FDFEEF
:1003FE00FF22C860DB2481C85009C39860025006F2
:10040E000201A69850CAF582E9294B4A7005AB82C3
:10041E0002019575F0007C1A7880C3EF9BEE9AED81
:10042E0099400DC3EF9BFFEE9AFEED99FDE842F069
:10043E00DC23ACF0D0E0FFD0E0FED0E0FDAB8220BC
:10044E00E7101BEB60BAEC2CFCEF33FFEE33FEED46
:10045E0033FD020181E803F830E705C0F075F000C6
:10046E00EF2FFFEE33FEED33FD40B830E7C280AA2A
:10047E003F8000004120000042C80000447A000086
:10048E00461C400047C35000497424004B18968008
:10049E004CBEBC205A0E1BCA6753C21C749DC5AEFF
:1004AE00FB60065407601C23231204DCEB543860F7
:1004BE00091204C81204D7120026ECF8EDF9EEFA70
:1004CE00EFCB22EB1204D780F1543803241C900496
:1004DE007EFE93FC0EEE93FD0EEE930ECE93FF2258
:03000000020F8963
:0C0F8900787FE4F6D8FD758161020FD07E
:1004EE00E709F608DFFA8046E709F208DFFA803EF0
:1004FE0088828C83E709F0A3DFFA8032E309F608DD
:10050E00DFFA8078E309F208DFFA807088828C8344
:10051E00E309F0A3DFFA806489828A83E0A3F608F8
:10052E00DFFA805889828A83E0A3F208DFFA804CD2
:10053E0080D280FA80C680D4806980F280338010A9
:10054E0080A680EA809A80A880DA80E280CA803312
:10055E0089828A83ECFAE493A3C8C582C8CCC5838A
:10056E00CCF0A3C8C582C8CCC583CCDFE9DEE7805A
:10057E000D89828A83E493A3F608DFF9ECFAA9F0D9
:10058E00EDFB2289828A83ECFAE0A3C8C582C8CC2F
:10059E00C583CCF0A3C8C582C8CCC583CCDFEADE48
:1005AE00E880DB89828A83E493A3F208DFF980CCAA
:1005BE0088F0EF60010E4E60C388F0ED2402B404A3
:1005CE000050B9F582EB2402B4040050AF2323454A
:0605DE00822390053E732C
:1005E400BB010689828A83E0225002E722BBFE0215
:0905F400E32289828A83E4932248
:1005FD00BB010CE58229F582E5833AF583E02250B3
:10060D0006E92582F8E622BBFE06E92582F8E222FC
:0D061D00E58229F582E5833AF583E4932216
:10062A00BB010689828A83F0225002F722BBFE01AF
:02063A00F322A9
:0E063C00C3E49FFFE49EFEE49DFDE49CFC22CF
:10064A00FAE6FB0808E6F925F0F618E6CA3AF622B1
:10065A00D083D082F8E4937012740193700DA3A32F
:10066A0093F8740193F5828883E473740293686043
:06067A00EFA3A3A380DF43
:10121400EFB40A07740D12121F740A309811A899BA
:10122400B8130CC2983098FDA899C298B811F6303A
:0712340099FDC299F5992212
:101079008B468A4789488B4C8A4D894EAB46054831
:10108900E548AA477002054714F91205E470ED74A2
:10109900FF2548F54874FF3547F547AB49054BE54A
:1010A9004BAA4A7002054A14F91205E4FFAB46053A
:1010B90048E548AA477002054714F9EF12062A7055
:0810C900DAAB4CAA4DA94E223E
:10068000E3F5F009E208B5F06D606B80F3E3F5F097
:1006900009E608B5F060605E80F387F009E608B50A
:1006A000F054605280F487F009E208B5F0486046E3
:1006B00080F488828C8387F009E0A3B5F038603637
:1006C00080F488828C8387F009E493A3B5F02760D7
:1006D0002580F388828C83E3F5F009E0A3B5F0165A
:1006E000601480F388828C83E3F5F009E493A3B56A
:1006F000F004600280F20207AB808580E7808E8084
:10070000D2803C8015806C807E809B80B5808B8001
:10071000A1804F8070803A0207C189828A83ECFAF7
:10072000E493F5F0A3C8C582C8CCC583CCE493A3F9
:10073000C8C582C8CCC583CCB5F070606E80E18935
:10074000828A83E493F5F0A3E208B5F05E605C80F2
:10075000F289828A83E0F5F0A3E608B5F04D604B9C
:1007600080F389828A83E0F5F0A3E208B5F03C606B
:100770003A80F389828A83E493F5F0A3E608B5F022
:100780002A602880F2805D89828A83ECFAE493F5FE
:10079000F0A3C8C582C8CCC583CCE0A3C8C582C8B5
:1007A000CCC583CCB5F004600280E27F00F845F050
:1007B000600EE863F0806480D395F01F40027F01F3
:1007C0002289828A83ECFAE0F5F0A3C8C582C8CCFE
:1007D000C583CCE0A3C8C582C8CCC583CCB5F0CB5B
:1007E00060C980E389828A83ECFAE0F5F0A3C8C58A
:1007F00082C8CCC583CCE493A3C8C582C8CCC583CA
:10080000CCB5F0A760A580E288F0ED2402B4040026
:100810005099F582EB2402B40400508F23234582C3
:05082000239006F973AE
:100F9500020C94E493A3F8E493A34003F68001F2D2
:100FA50008DFF48029E493A3F85407240CC8C3335D
:100FB500C4540F4420C8834004F456800146F6DF2C
:100FC500E4800B01020408102040809012E7E47EC3
:100FD500019360BCA3FF543F30E509541FFEE49321
:100FE500A360010ECF54C025E060A840B8E493A3E8
:100FF500FAE493A3F8E493A3C8C582C8CAC583CA13
:10100500F0A3C8C582C8CAC583CADFE9DEE780BECA
:0112F00000FD
:00000001FF
