:030000000204DC1B
:0C04DC00787FE4F6D8FD75811C02052332
:10056800E4FFFEFDC282C2810000D280D281000079
:10057800C2810000D280D2810000C2810000C28006
:10058800D2810000C281D2800000D2810000C281E5
:100598000000A280E433FCEE25E04CFE0FBF08EA21
:1005A800E4FFA280E433FCA807088002C333D8FC28
:1005B8004205D2810000C28100000FBF08E400009C
:0B05C800D282EDB50603AF06227F00D3
:0105D3002205
:10068700E4FEEF30E704D2B58002C2B5EF25E0FF04
:10069700C2B60000D2B600000EBE08E6C2B6000021
:0106A7002230
:0D06BB00C2B70000D2B70000C2B700002295
:0A06C8003F065B4F666D7D077F6FF4
:0606D2000419313233006F
:1006A800E4FFD290B2907E78AD061EED70FA0FBFCF
:0206B8003CF212
:0106BA00221D
:10043000E4F50FF50EF50DF50CF513F512F511F5C4
:1004400010F517F516F515F514F518F518AB13AAF0
:1004500012A911A810C000C001C002C00312056893
:10046000AC07E4120318D003D002D001D000120070
:100470000A8F138E128D118C100518E518C3940A7B
:1004800040CBE4FBFA79207841AF13AE12AD11AC4A
:100490001012020412034CAC07E41203188F178EDB
:1004A000168D158C14E4FFFE7DA07CC0AB17AA1638
:1004B000A915A81412000AA804A905AA06AB077F6B
:1004C000007E807DAD7C44120204E4FBFAF978C022
:0B04D00012000A8F0F8E0E8D0D8C0C99
:0104DB0022FE
:080632008F0F8E0E8D0D8C0C54
:10063A00E4FFFE7D207C41AB0FAA0EA90DA80C1287
:10064A0000FB12034CAB07AA067C007D641203CDA3
:10065A00EF2430F5197C007D0AAF03AE021203CDF8
:10066A007C007D0A1203CDED2430F51AAE02AF03E9
:0C067A007C007D0A1203CDED2430F51B3E
:010686002251
:1005D400E4F50BF50AF509F5081204308F0B8E0AC1
:1005E4008D098C08E4FFFE7DF07C41AB0BAA0AA9BF
:1005F40009A8081202A150031206A8AF0BAE0AAD57
:1006040009AC08120632E51B90069893F4FF120613
:1006140087E51A90069893F4547FFF120687E5192C
:0E06240090069893F4FF1206871206BB80AB77
:100003000203B8E86480F8E933E83360110460F070
:10001300ED33EC337009E8FCE9FDEAFEEBFF220463
:1000230060DED3EB9FEA9EE99DE8C2E78CF0C2F75E
:1000330095F0400CE8CCF8E9CDF9EACEFAEBCFFB2A
:1000430012038385D0F05804700320D5B3E80470FD
:10005300075002B2D50203C292D5EC0460F7E4CC98
:10006300C0E0C398F8603B94186008400DD0E0FBF3
:1000730002039AE4FBFAC9FC8028E830E406E4C9E9
:10008300FBE4CAFCE830E305E4C9CACBFCE8540747
:100093006010F8C3E913F9EA13FAEB13FBEC13FC52
:1000A300D8F130F52FC3E49CFCEF9BFFEE9AFEEDF5
:1000B30099FDD0E0FBEF4E4D4C701222DB0302039F
:1000C300BFEC2CFCEF33FFEE33FEED33FDED30E7F9
:1000D300EB02039AEF2BFFEE3AFEED39FDD0E0FB86
:1000E30050130BBB00030203C2ED13FDEE13FEEF2F
:0800F30013FFEC13FC02039A59
:1000FB00EC4D6011E8497017ED33EC3304600DE4FF
:10010B00FCFFFEFD22E933E8330470F80203B8125A
:10011B00038358046009E4CC24815006285009025B
:10012B0003C22840030203BFC0E0EB4A7044B9800E
:10013B0006D0E0FB0203AEEF4E701CBD8008EBFF58
:10014B00EAFEE9FD80EBE98DF0A4FEE5F00201E4A7
:10015B00E9CDF9EAFEEBFFEF89F0A4FCE5F0CE89DF
:10016B00F0A42EFFE435F0CD89F0A42DFEE435F09C
:10017B008067EF4E7005BD80D780C3EF8BF0A4ACCA
:10018B00F0EE8BF0A42CFCE435F0F8EF8AF0A42C05
:10019B00E5F038FCE433CB8DF0A42CFCE5F03BF818
:1001AB00EE8AF0A42CFCE5F038F8E433CF89F0A408
:1001BB002CFCE5F038CF3400CE89F0A42FFFE5F00E
:1001CB003EFEE433C98DF0A42EFEE5F039CD8AF066
:1001DB00A42FFFE5F03EFEE43DFD33D0E0FB5007DE
:1001EB000BBB000F0203C2EC2CFCEF33FFEE33FE14
:0601FB00ED33FD02039A42
:100201000203C2EC5D046005E8590470030203B8FF
:10021100120383580460F6EC4860F2EC7004FDFEB2
:10022100FF22C860DB2481C85009C39860025006D0
:100231000203BF9850CAF582E9294B4A7005AB8287
:100241000203AE75F0007C1A7880C3EF9BEE9AED45
:1002510099400DC3EF9BFFEE9AFEED99FDE842F048
:10026100DC23ACF0D0E0FFD0E0FED0E0FDAB82209B
:10027100E7101BEB60BAEC2CFCEF33FFEE33FEED25
:1002810033FD02039AE803F830E705C0F075F0008A
:10029100EF2FFFEE33FEED33FD40B830E7C280AA09
:1002A10074F8CC6480CCC86480C8F582046043C310
:1002B100EB9FF5F0EA9E42F0E99D42F0E89C45F0A3
:1002C10060305018E5825FFFE582F42B5582FB50C8
:1002D100210ABA001D09B90019088016E5825BFBE5
:1002E100E582F42F5582FF50090EBE00050DBD00B9
:1002F100010CC3EB9FF5F0EA9E42F0E99D42F0E864
:0D0301009C45F06007CC4820E701B3EC22DA
:10030E0075F020800E75F010800575F0087D007E6A
:10031E00007F003392D530D503120422EC33401007
:10032E00EF33FFEE33FEED33FDEC33FCD5F0ED2273
:0E033E00E5F0247EA2D513CC92E7CDCEFF22AF
:10034C00EDD2E7CD33EC3392D524814006E4FFFEA9
:10035C00FDFC22FCE4CFCECDCC24E0501174FF8008
:10036C00EDC3CC13CCCD13CDCE13CECF13CF0470A5
:07037C00F030D5DE0204227F
:10038300E9D2E7C933E833F892D5EDD2E7CD33ECC0
:0703930033FC5002B2D52239
:10039A00EC30E7100FBF000C0EBE00080DBD0004C4
:1003AA000BEB6014A2D5EB13FCED92E7FD2274FF70
:1003BA00FCFDFEFF22E480F8A2D574FF13FC7D80C9
:0303CA00E480EFDD
:1004E8000205D4E493A3F8E493A34003F68001F251
:1004F80008DFF48029E493A3F85407240CC8C33315
:10050800C4540F4420C8834004F456800146F6DFE3
:10051800E4800B01020408102040809006D2E47E9B
:10052800019360BCA3FF543F30E509541FFEE493D8
:10053800A360010ECF54C025E060A840B8E493A39F
:10054800FAE493A3F8E493A3C8C582C8CAC583CACA
:10055800F0A3C8C582C8CAC583CADFE9DEE780BE82
:0106D8000021
:1003CD00BC000BBE0029EF8DF084FFADF022E4CC14
:1003DD00F875F008EF2FFFEE33FEEC33FCEE9DECDD
:1003ED00984005FCEE9DFE0FD5F0E9E4CEFD22ED23
:1003FD00F8F5F0EE8420D21CFEADF075F008EF2F6D
:10040D00FFED33FD4007985006D5F0F222C398FD5D
:05041D000FD5F0EA22FA
:0E042200C3E49FFFE49EFEE49DFDE49CFC22EB
:00000001FF
