:03000000020BA749
:0C0BA700787FE4F6D8FD758148020BEE63
:0200030080C0BB
:100DAF007580FFC2A2C2A0D2A1D2A2AF800000C2A2
:050DBF00A2EF20E7EBAC
:010DC400220C
:100DEF00AE07120DAFC2A2D2A0C2A18E80D2A200B6
:030DFF00C2A2226B
:100E0200AE07120DAFC2A2C2A0C2A18E80D2A200B2
:030E1200C2A22257
:0E0C33008E2B8F2C8C2D8D2E8B2F8A3089319D
:100C4100E4FD78327C007BFF7A007903FE7F02129B
:100C510005A67432252CF8E6FFE52E4FFF120E0291
:100C6100E4FCFDAB2FAA30A9318D828C831205E5FE
:100C7100FF600E120DEF0DBD00010CED64104C7004
:100C8100E2C3ED9410EC64809480500C7F20120D2F
:080C9100EF0DBD00010C80E92C
:010C99002238
:100DDB007F38120E027F01120E027F06120E027F67
:040DEB000C020E02E6
:100CCF00477265656E686F75736520546573740040
:100CDF0054454D503A0054454D503A202025352E5D
:100CEF003266DF4300494E4954204552524F52005D
:040E230002080000C1
:100C9A00120DDB7BFF7A0C79CFE4FDFCFFFE120C10
:100CAA00337BFF7A0C79DFE4FDFC7F01FE120C3303
:100CBA00120CFF7FDC7E05120DC5758901D2AFD2F9
:050CCA00A9D28C80FEA0
:03000B00020AD70F
:100AD700C0E0C0F0C083C082C0D075D000C000C0E5
:100AE70001C002C003C004C005C006C0070509E570
:100AF7000970020508758A34758C34E509640A455E
:100B0700086003020B8CF508F509120CFFEF60660D
:100B1700750800750900E548AD47FCEC120119E4BA
:100B2700FBFA7980783D12000E8F0D8E0C8D0B8CA1
:100B37000A752EFF752F0C7530E58F348E338D3285
:100B47008C317B007A00790E1206C47B007A00791B
:100B57000EE4FDFC7F01FE120C33209506D290C2F5
:100B6700918004C290C291209606D292C2938015BA
:100B7700C292C293800F7BFF7A0C79F4E4FDFC7F6D
:100B870001FE120C33D007D006D005D004D003D015
:100B970002D001D000D0D0D082D083D0F0D0E032C4
:040E2700024700007E
:100DC500EF1FAA0670011E4A600BE4FDEDC394787F
:050DD50050EE0D80F757
:010DDA0022F6
:040E15007F087E00D4
:0A0E1900EF1F70011E144E70F72247
:100D5300D2A3120E15C2A37F5A7E00120E19D2A37C
:100D63007F057E00120E19A2A3E433FD7F5A7E0095
:050D7300120E19AF058E
:010D78002258
:100D7900E4FD7C01EC6014C2A300D2A30030A302FD
:0D0D89004205120E15EC25E0FC80E9AF05D7
:010D9600223A
:020D9700AD07A6
:100D9900E4FCD2A300C2A300EDC313FD92A3120E7B
:050DA900150CBC08ED73
:010DAE002222
:100CFF00120D53EF60037F00227FCC120D977F44BC
:100D0F00120D97120D537FCC120D977FBE120D97B8
:0D0D1F00120D798F47120D798F487F012248
:10000E00EC4D6011E8497017ED33EC3304600DE4EC
:10001E00FCFFFEFD22E933E8330470F8020187127B
:10002E00015258046009E4CC24815006285009027C
:10003E00019128400302018EC0E0EB4A7044B98062
:10004E0006D0E0FB02017DEF4E701CBD8008EBFF79
:10005E00EAFEE9FD80EBE98DF0A4FEE5F00200F783
:10006E00E9CDF9EAFEEBFFEF89F0A4FCE5F0CE89CD
:10007E00F0A42EFFE435F0CD89F0A42DFEE435F08A
:10008E008067EF4E7005BD80D780C3EF8BF0A4ACB8
:10009E00F0EE8BF0A42CFCE435F0F8EF8AF0A42CF3
:1000AE00E5F038FCE433CB8DF0A42CFCE5F03BF806
:1000BE00EE8AF0A42CFCE5F038F8E433CF89F0A4F6
:1000CE002CFCE5F038CF3400CE89F0A42FFFE5F0FC
:1000DE003EFEE433C98DF0A42EFEE5F039CD8AF054
:1000EE00A42FFFE5F03EFEE43DFD33D0E0FB5007CC
:1000FE000BBB000F020191EC2CFCEF33FFEE33FE35
:06010E00ED33FD02016962
:1001140075F020800E75F010800575F0087D007E66
:10012400007F003392D530D503120624EC334010FF
:10013400EF33FFEE33FEED33FDEC33FCD5F0ED226F
:0E014400E5F0247EA2D513CC92E7CDCEFF22AB
:10066800E542242EF8E6054222782B300702782E40
:10067800E475F0011206320205CC2000EB7F2ED281
:10068800008018EF540F2490D43440D4FF30040B6A
:10069800EF24BFB41A0050032461FFE5436002153C
:1006A800430546E5467002054530070D782BE4758D
:1006B800F001120632EF020612020D2C7403D20763
:1006C8008003E4C207F5428B2B8A2C892DE4F5437D
:1006D800F545F546E54360077F201206A380F575CA
:1006E80044FFC201C200C202C203C205C206C20858
:1006F800120671FF700D3007057F001206B4AF4671
:10070800AE4522B4255FC2D5C204120671FF24D0BB
:10071800B40A00501A75F00A784330D50508B6FFB8
:100728000106C6A426F620D5047002D20380D92477
:10073800CFB41A00EF5004C2E5D2040209A1D201D5
:1007480080C6D20080C0D20280BCD2D580BAD20581
:1007580080B47F201206A32002077401B54300402D
:10076800F1120668FF1206A30206DCD208D2068040
:1007780095120668FB120668FA120668F94A4B7069
:100788000679987A0A7BFF20022EE543602A7E00CC
:100798008E827583001205E560060EEE654470F0E2
:1007A800C2D5EBC0E0EAC0E0E9C0E0EE120A01D031
:1007B800E0F9D0E0FAD0E0FB1205CCFF60AAEBC06C
:1007C800E0EAC0E0E9C0E01206A3D0E02401F9D0D5
:1007D800E03400FAD0E0FBE5440460DCD544D9807D
:1007E80087D20280A21209E460F7E544700104127E
:1007F800019CA944600DE544600914F544120A8B74
:10080800EF60F3EA30E702F404C3995077EAF4257D
:10081800440430E701E404F544800D1209E460C1A2
:10082800EA0544254412019CEA7841F630E701E4E0
:10083800254404D5440420050114120A01E4C0E04B
:10084800120A8B7841E6601320E70714F612068B2C
:10085800802204F6D0E014C0E07F0012068BE54445
:1008680060071206821544800B300503120682D0F9
:10087800E00206DCD0E00480C51209E460A0E5448B
:100888000412019C7841EAF6E5442005026001045F
:050898002404120A0116
:10089D0074FF04C0E0120A8B12068BE5442005029A
:1008AD006003120682D0E0B544E87F4512069578C4
:1008BD0041E67F2B30E7047F2DF404C0E01206A340
:1008CD00D0E075F00A84C0F012068CD0E012068CD0
:1008DD000206DC791080027908C206C2088008D2AF
:1008ED00D5790A8004790AC2D5E544047002F5442D
:1008FD00E4FAFDFEFF120668FC7B082001131206C8
:10090D0068FD7B1030000A120668FE120668FF7B38
:10091D0020EC3382D592D55013C3E43000069FFFEF
:10092D00E49EFEE42001039DFDE49CFCE4CBF8C2B3
:10093D0001EC700CCFCECDCCE824F8F870F3801715
:10094D00C3EF33FFEE33FEED33FDEC33FCEB33FB46
:10095D00994002FB0FD8E9EB300105F8D0E0C4480F
:10096D00B201C0E00AEC4D4E4F78207B0070C2EA18
:10097D00B5440040BCC0E0120A03D0F0D0E0200125
:10098D0004C4C0E0C4B201C0F012068CD0F0D5F0A2
:10099D00EB0206DC12064207795308E058074A4C71
:1009AD0007464208E44F08EC4408EC49075F43084A
:1009BD00F25508234608814507ED470AB850074E02
:1009CD002D07522E07752B0756230773200AA12AD0
:1009DD00070E480000076DE544B4FF037544061289
:1009ED000668FC120668FD120668FE120668FF789E
:1009FD003A0201CB790AA2D5200314300509B910AA
:100A0D00020404B9080104A2D520060250010420F5
:100A1D0002689202B543005034C0E07F20300319C4
:100A2D007F30A20272067205500F120A5AC202C21C
:100A3D0006C205C2087F30800F300503E9C0E01201
:100A4D0006A3300503D0E0F9D0E0B543CC3005174F
:100A5D007F30B9100C1206A37F583004077F7880C1
:100A6D0003B908031206A33002057F2D0206A37FEA
:100A7D00202008F87F2B2006F322920280CF7F00E2
:100A8D00B407005005243AF8E6FF22286E756C6C09
:100A9D002900D2011206683001F8C201784330D521
:100AAD000108F602070E2D5043495812066824031B
:100ABD00B405004001E4900AB393120694743A12FF
:0A0ACD000694D2037543040208E00A
:10015200E9D2E7C933E833F892D5EDD2E7CD33ECF3
:0701620033FC5002B2D5226C
:10016900EC30E7100FBF000C0EBE00080DBD0004F7
:100179000BEB6014A2D5EB13FCED92E7FD2274FFA3
:10018900FCFDFEFF22E480F8A2D574FF13FC7D80FC
:03019900E480EF10
:10019C00F920E72824F950037907E4F42402FB182A
:1001AC00DBFDE624FB5014E9600DE4F618E604F6DA
:0F01BC00B40A08E4F6D9F57401F60A22C2D52276
:1001CB00ED33EC3392D5FA602AB4FF33EDC2E77B03
:1001DB00FF60067A0179F0E4227A0179F920D504DF
:1001EB007A0179F4224E614E002B494E46002D497F
:1001FB004E4600E47A08F608DAFC7B00740722E826
:10020B00C0E0ECC0E0EDC0E0EEC0E0EFC0E0EA75AE
:10021B00F010A4CAABF075F04DA42BFBE435F0FC49
:10022B00EA2410FAEB34C5FBEC34D9FCEDC2E7FF42
:10023B0075F056A4F42411C5F0F434C58FF0A42A3C
:10024B00E5F03BE43CF620E714120496D0E0FFD037
:10025B00E0FED0E0FDD0E0FC1203C98014F40412E0
:10026B000496D0E0FFD0E0FED0E0FDD0E0FC120021
:10027B000ED0E0F8E6FAEDD2E7CD33EC332482FB77
:10028B00E4C3CF33CFCE33CECD33CD33DBF37B07CC
:10029B0075F00A846004F6081B0AE5F0F6088FF087
:1002AB00740AA4FFACF08EF0740AA42CFEACF050D0
:1002BB00010C8DF0740AA42CFDE435F0F608DBDE9E
:0302CB0074072293
:1002CE00020187E86480F8E933E83360110460F0D6
:1002DE00ED33EC337009E8FCE9FDEAFEEBFF220496
:1002EE0060DED3EB9FEA9EE99DE8C2E78CF0C2F791
:1002FE0095F0400CE8CCF8E9CDF9EACEFAEBCFFB5D
:10030E0012015285D0F05804700320D5B3E8047062
:10031E00075002B2D502019192D5EC0460F7E4CCFD
:10032E00C0E0C398F8603B94186008400DD0E0FB25
:10033E00020169E4FBFAC9FC8028E830E406E4C94E
:10034E00FBE4CAFCE830E305E4C9CACBFCE8540779
:10035E006010F8C3E913F9EA13FAEB13FBEC13FC84
:10036E00D8F130F52FC3E49CFCEF9BFFEE9AFEED27
:10037E0099FDD0E0FBEF4E4D4C701222DB030201D3
:10038E008EEC2CFCEF33FFEE33FEED33FDED30E75C
:10039E00EB020169EF2BFFEE3AFEED39FDD0E0FBEB
:1003AE0050130BBB0003020191ED13FDEE13FEEF94
:0803BE0013FFEC13FC020169BE
:1003C600020191EC5D046005E8590470030201879F
:1003D600120152580460F6EC4860F2EC7004FDFE1F
:1003E600FF22C860DB2481C85009C398600250060A
:1003F60002018E9850CAF582E9294B4A7005AB82F4
:1004060002017D75F0007C1A7880C3EF9BEE9AEDB1
:1004160099400DC3EF9BFFEE9AFEED99FDE842F081
:10042600DC23ACF0D0E0FFD0E0FED0E0FDAB8220D4
:10043600E7101BEB60BAEC2CFCEF33FFEE33FEED5E
:1004460033FD020169E803F830E705C0F075F000F6
:10045600EF2FFFEE33FEED33FD40B830E7C280AA42
:100466003F8000004120000042C80000447A00009E
:10047600461C400047C35000497424004B18968020
:100486004CBEBC205A0E1BCA6753C21C749DC5AE17
:10049600FB60065407601C23231204C4EB54386027
:1004A600091204B01204BF12000EECF8EDF9EEFAD0
:1004B600EFCB22EB1204BF80F1543803241C9004C6
:1004C60066FE93FC0EEE93FD0EEE930ECE93FF2288
:100BB300020C9AE493A3F8E493A34003F68001F2B2
:100BC30008DFF48029E493A3F85407240CC8C33343
:100BD300C4540F4420C8834004F456800146F6DF12
:100BE300E4800B0102040810204080900E23E47E71
:100BF300019360BCA3FF543F30E509541FFEE49307
:100C0300A360010ECF54C025E060A840B8E493A3CD
:100C1300FAE493A3F8E493A3C8C582C8CAC583CAF8
:100C2300F0A3C8C582C8CAC583CADFE9DEE780BEB0
:010E2B0000C6
:1004D600E709F608DFFA8046E709F208DFFA803E08
:1004E60088828C83E709F0A3DFFA8032E309F608F5
:1004F600DFFA8078E309F208DFFA807088828C835D
:10050600E309F0A3DFFA806489828A83E0A3F60810
:10051600DFFA805889828A83E0A3F208DFFA804CEA
:1005260080D280FA80C680D4806980F280338010C1
:1005360080A680EA809A80A880DA80E280CA80332A
:1005460089828A83ECFAE493A3C8C582C8CCC583A2
:10055600CCF0A3C8C582C8CCC583CCDFE9DEE78072
:100566000D89828A83E493A3F608DFF9ECFAA9F0F1
:10057600EDFB2289828A83ECFAE0A3C8C582C8CC47
:10058600C583CCF0A3C8C582C8CCC583CCDFEADE60
:10059600E880DB89828A83E493A3F208DFF980CCC2
:1005A60088F0EF60010E4E60C388F0ED2402B404BB
:1005B6000050B9F582EB2402B4040050AF23234562
:0605C6008223900526735C
:1005CC00BB010689828A83E0225002E722BBFE022D
:0905DC00E32289828A83E4932260
:1005E500BB010CE58229F582E5833AF583E02250CB
:1005F50006E92582F8E622BBFE06E92582F8E22215
:0D060500E58229F582E5833AF583E493222E
:10061200BB010689828A83F0225002F722BBFE01C7
:02062200F322C1
:0E062400C3E49FFFE49EFEE49DFDE49CFC22E7
:10063200FAE6FB0808E6F925F0F618E6CA3AF622C9
:10064200D083D082F8E4937012740193700DA3A347
:1006520093F8740193F5828883E47374029368605B
:06066200EFA3A3A380DF5B
:100D2C00EFB40A07740D120D37740A309811A89994
:100D3C00B8130CC2983098FDA899C298B811F63027
:070D4C0099FDC299F59922FF
:00000001FF
