:030000000200A853
:0C00A800787FE4F6D8FD7581090200594C
:1000980001030206040C080909080C0406020301FE
:08007B00EB93F5907F3C7E0041
:100083007D78EF1FAA0670011E4A6008AC051DECBF
:0400930060F080F8A1
:010097002246
:020003008F0963
:10000500E4F9E50975F005A4FFE9C39FE5F064800F
:10001500F87480985012E4FB90009812007B30B27F
:08002500070BBB08F30980DAA8
:01002D0022B0
:02002E008F0938
:10003000E4F9E50975F005A4FFE9C39FE5F06480E4
:10004000F87480985012E4FB9000A012007B30B24C
:08005000070BBB08F30980DA7D
:010058002285
:1000590075080120B00A7580FEAF0812000380F30D
:1000690020B10A7580FDAF0812002E80E67580FB6D
:0200790080E124
:00000001FF
