:0300000002013FBB
:0C013F00787FE4F6D8FD7581150201867A
:0203480080C073
:0A02B500EF1FAC0670011E4C60152F
:1002BF00750A00750B64E50B150BAC0A7002150A75
:0502CF004C60E380F12A
:0102D4002207
:1002D5007580FFC2A2C2A0D2A1D2A2AF800000C287
:0502E500A2EF20E7EB91
:0102EA0022F1
:10031400AE071202D5C2A2D2A0C2A18E80D2A20080
:03032400C2A22250
:10032700AE071202D5C2A2C2A0C2A18E80D2A2007D
:03033700C2A2223D
:0E01CB008E0A8F0B8C0C8D0D8B0E8A0F8910F7
:1001D900E4FD78117C007BFF7A037948FE7F0212E7
:1001E90000D37411250BF8E6450DFF120327E4FC33
:1001F900FDAB0EAA0FA9108D828C831200F9FF6046
:100209000E1203140DBD00010CED64104C70E2C315
:10021900ED9410EC64809480500C7F201203140D2F
:06022900BD00010C80E99C
:01022F0022AC
:100300007F381203277F011203277F061203277FFE
:040310000C020327B1
:100288002020202020202020202020202020202066
:1002980049204C6F766520596F7521002020202059
:0D02A8004578616D706C652D3120202000BF
:050342000313FF028817
:100230001203007BFF7A0279A4E4FDFCFFFE1201A9
:10024000CBE4F508F509AB13AA14A9151202EBC308
:10025000E5099FEE6480F8E5086480985026AB13AA
:10026000E5152509F9E5143508FAE4FDFC7F01FEE2
:100270001201CB7F647E001202B50509E50970C644
:08028000050880C230B0BA226B
:08033A0020B0FD12023080F832
:10014B0002033AE493A3F8E493A34003F68001F28D
:10015B0008DFF48029E493A3F85407240CC8C333B5
:10016B00C4540F4420C8834004F456800146F6DF84
:10017B00E4800B0102040810204080900342E47ECF
:10018B00019360BCA3FF543F30E509541FFEE49379
:10019B00A360010ECF54C025E060A840B8E493A340
:1001AB00FAE493A3F8E493A3C8C582C8CAC583CA6B
:1001BB00F0A3C8C582C8CAC583CADFE9DEE780BE23
:0103470000B5
:10000300E709F608DFFA8046E709F208DFFA803EDF
:1000130088828C83E709F0A3DFFA8032E309F608CC
:10002300DFFA8078E309F208DFFA807088828C8334
:10003300E309F0A3DFFA806489828A83E0A3F608E8
:10004300DFFA805889828A83E0A3F208DFFA804CC2
:1000530080D280FA80C680D4806980F28033801099
:1000630080A680EA809A80A880DA80E280CA803302
:1000730089828A83ECFAE493A3C8C582C8CCC5837A
:10008300CCF0A3C8C582C8CCC583CCDFE9DEE7804A
:100093000D89828A83E493A3F608DFF9ECFAA9F0C9
:1000A300EDFB2289828A83ECFAE0A3C8C582C8CC1F
:1000B300C583CCF0A3C8C582C8CCC583CCDFEADE38
:1000C300E880DB89828A83E493A3F208DFF980CC9A
:1000D30088F0EF60010E4E60C388F0ED2402B40493
:1000E3000050B9F582EB2402B4040050AF2323453A
:0600F3008223900053730C
:1000F900BB010CE58229F582E5833AF583E02250BC
:1001090006E92582F8E622BBFE06E92582F8E22205
:0D011900E58229F582E5833AF583E493221F
:1002EB00E4FFFE120126600C0FEF70010E09E9709E
:0502FB00F20A80EF2271
:10012600BB010689828A83E0225002E722BBFE02D7
:09013600E32289828A83E493220A
:00000001FF
