:03000000020741B3
:0C074100787FE4F6D8FD75814A02078835
:020A310080C083
:0A098600EF1FAC0670011E4C601557
:10099000753700753864E5381538AC37700215378F
:0509A0004C60E380F152
:0109A500222F
:1009C6007580FFC2A2C2A0D2A1D2A2AF800000C28F
:0509D600A2EF20E7EB99
:0109DB0022F9
:100A0500AE071209C6C2A2D2A0C2A18E80D2A20090
:030A1500C2A22258
:100A1800AE071209C6C2A2C2A0C2A18E80D2A2008D
:030A2800C2A22245
:0E0855008E378F388C398D3A8B3B8A3C893D2B
:10086300E4FD783E7C007BFF7A0A7931FE7F021239
:10087300042F743E2538F8E6453AFF120A18E4FCC3
:10088300FDAB3BAA3CA93D8D828C83120455FF60CE
:100893000E120A050DBD00010CED64104C70E2C38D
:1008A300ED9410EC64809480500C7F20120A050DA7
:0608B300BD00010C80E90C
:0108B900221C
:1009F1007F38120A187F01120A187F06120A187F1F
:040A01000C020A18C1
:1006B3002020202020202020202020202020202037
:1006C30049204C6F766520596F752100202020202A
:1006D3004578616D706C652D31202020002020202D
:1006E300204578616D706C652D32202020002564D3
:1006F3002B25643D2564002020202020202020205D
:10070300202000202020204578616D706C652D33FA
:1007130020202000202020204578616D706C652DFD
:1007230034202020002020202020202020202020D2
:0E0733002020202020001F111F111F111F0069
:050A2B00030CFF06B3FF
:1008BA001209F17BFF7A0679CFE4FDFCFFFE1208EC
:1008CA0055E4F522F523AB0CAA0DA90E1209DCC3D7
:1008DA00E5239FEE6480F8E5226480985026AB0CED
:1008EA00E50E2523F9E50D3522FAE4FDFC7F01FE2C
:1008FA001208557F647E001209860523E52370C617
:08090A00052280C230B0BA22C0
:10056E001209F17F0F120A187BFF7A0679E0E4FD7B
:10057E00FCFFFE120855AF8C7E00120954120912B0
:10058E007C007D0A1204828C228D231209127C00BB
:10059E007D0A120482753AFF753B06753CF1852281
:1005AE003D85233E8C3F8D40E5232DF542E5223CD3
:1005BE00F5417B007A00792612005F7FC5120A187A
:1005CE00E4F524F52574262525F8E6FF6002800261
:1005DE007F20120A057F967E001209860525E525E5
:1005EE0070020524C3940BE5246480948040D67B6E
:1005FE00FF7A0679FAE4FDFC7F01FE1208557F961C
:0C060E007E0012098620B1030205842240
:1007CD001209F17F0F120A187BFF7A077906E4FDF3
:1007DD00FCFFFE12085520B26E7FC0120A1875225A
:1007ED0000752320D3E52394FFE522648094805087
:1007FD00E5C3E5239480E52264809480400DD3E524
:10080D00239490E5226480948040320525E525707F
:10081D000205246410452470187BFF7A0679FAFDD1
:10082D00FC7F01FE120855E4F524F5257FC0120A60
:10083D0018AF23120A057F967E001209860523E55F
:07084D002370A10522809D2C
:010854002281
:10061A00E4F522F52378247C00FD7BFF7A077939FB
:10062A00FE7F0812042F1209F17F0F120A187BFFAE
:10063A007A077917E4FDFCFFFE1208557F40120A7B
:10064A0018E4F522F52374242523F8E6FF120A0597
:10065A000523E52370020522C39408E522648094E9
:10066A008040E320B32D7FC0120A18E4F522F52357
:10067A00C3E5239410E5226480948050E6E4FF12D7
:10068A000A057F967E001209860523E52370E10597
:10069A002280DD7BFF7A077928E4FDFC7F01FE12C8
:0906AA0008557F967E00020986C6
:1009A60020B0051208BA80F820B10512056E80F055
:1009B60020B2051207CD80E820B3E512061A80E0C2
:10074D000209A6E493A3F8E493A34003F68001F213
:10075D0008DFF48029E493A3F85407240CC8C333AD
:10076D00C4540F4420C8834004F456800146F6DF7C
:10077D00E4800B0102040810204080900A2BE47ED7
:10078D00019360BCA3FF543F30E509541FFEE49371
:10079D00A360010ECF54C025E060A840B8E493A338
:1007AD00FAE493A3F8E493A3C8C582C8CAC583CA63
:1007BD00F0A3C8C582C8CAC583CADFE9DEE780BE1B
:010A300000C5
:10035F00E709F608DFFA8046E709F208DFFA803E80
:10036F0088828C83E709F0A3DFFA8032E309F6086D
:10037F00DFFA8078E309F208DFFA807088828C83D5
:10038F00E309F0A3DFFA806489828A83E0A3F60889
:10039F00DFFA805889828A83E0A3F208DFFA804C63
:1003AF0080D280FA80C680D4806980F2803380103A
:1003BF0080A680EA809A80A880DA80E280CA8033A3
:1003CF0089828A83ECFAE493A3C8C582C8CCC5831B
:1003DF00CCF0A3C8C582C8CCC583CCDFE9DEE780EB
:1003EF000D89828A83E493A3F608DFF9ECFAA9F06A
:1003FF00EDFB2289828A83ECFAE0A3C8C582C8CCC0
:10040F00C583CCF0A3C8C582C8CCC583CCDFEADED8
:10041F00E880DB89828A83E493A3F208DFF980CC3A
:10042F0088F0EF60010E4E60C388F0ED2402B40433
:10043F000050B9F582EB2402B4040050AF232345DA
:06044F0082239003AF734D
:10045500BB010CE58229F582E5833AF583E022505C
:1004650006E92582F8E622BBFE06E92582F8E222A6
:0D047500E58229F582E5833AF583E49322C0
:10048200C2D5EC30E709B2D5E4C39DFDE49CFCEE95
:1004920030E715B2D5E4C39FFFE49EFE1204E3C326
:1004A200E49DFDE49CFC80031204E330D507C3E421
:0604B2009FFFE49EFE2204
:10000300E546243AF8E60546227837300702783A7F
:10001300E475F0011205380204B82000EB7F2ED2FC
:10002300008018EF540F2490D43440D4FF30040BD5
:10003300EF24BFB41A0050032461FFE547600215A3
:1000430047054AE54A7002054930070D7837E475DC
:10005300F001120538EF0204D102095F7403D207DD
:100063008003E4C207F5468B378A388939E4F547BC
:10007300F549F54AE54760077F2012003E80F57594
:1000830048FFC201C200C202C203C205C206C208BF
:1000930012000CFF700D3007057F0012004FAF4AAE
:1000A300AE4922B4255FC2D5C20412000CFF24D08E
:1000B300B40A00501A75F00A784730D50508B6FF20
:1000C3000106C6A426F620D5047002D20380D924E3
:1000D300CFB41A00EF5004C2E5D20402024FD2019A
:1000E30080C6D20080C0D20280BCD2D580BAD205ED
:1000F30080B47F2012003E2002077401B547004000
:10010300F1120003FF12003E020077D208D20680EC
:1001130095120003FB120003FA120003F94A4B7015
:100123000679207A037BFF20022EE547602A7E00B2
:100133008E8275830012045560060EEE654870F0DA
:10014300C2D5EBC0E0EAC0E0E9C0E0EE120296D00F
:10015300E0F9D0E0FAD0E0FB1204B8FF60AAEBC0EC
:10016300E0EAC0E0E9C0E012003ED0E02401F9D0AB
:10017300E03400FAD0E0FBE5480460DCD548D980E0
:10018300877BFF7A027992D202809C791080027970
:1001930008C206C2088008D2D5790A8004790AC247
:1001A300D5E548047002F548E4FAFDFEFF120003AA
:1001B300FC7B08200113120003FD7B1030000A12A0
:1001C3000003FE120003FF7B20EC3382D592D5504F
:1001D30013C3E43000069FFFE49EFEE42001039D69
:1001E300FDE49CFCE4CBF8C201EC700CCFCECDCC8B
:1001F300E824F8F870F38017C3EF33FFEE33FEED16
:1002030033FDEC33FCEB33FB994002FB0FD8E9EBF6
:10021300300105F8D0E0C448B201C0E00AEC4D4E0D
:100223004F78207B0070C2EAB5480040BCC0E012A2
:100233000298D0F0D0E0200104C4C0E0C4B201C0F1
:10024300F0120027D0F0D5F0EB0200771205480139
:100253001453018E5800E54C00E14201924F019A7C
:0F02630044019A4900FA4301A0550184460184E1
:100272004501844703405000E92D00ED2E01102B6B
:1002820000F123010E2003292A00A94800000108D9
:100292003F3F3F00790AA2D5200314300509B91067
:1002A200020404B9080104A2D52006025001042068
:1002B20002689202B547005034C0E07F2030031933
:1002C2007F30A20272067205500F1202EFC202C202
:1002D20006C205C2087F30800F300503E9C0E01274
:1002E200003E300503D0E0F9D0E0B547CC30051729
:1002F2007F30B9100C12003E7F583004077F78809F
:1003020003B9080312003E3002057F2D02003E7F32
:10031200202008F87F2B2006F322920280CF286E3D
:10032200756C6C2900D2011200033001F8C2017809
:100332004730D50108F60200A92D50434958120052
:10034200032403B405004001E490033B9312002F01
:0D035200743A12002FD20375470402018E89
:10091200AC08AD09AE0AAF0B7810EC4D4E4F700427
:100922007CA57DA5C3EC13FCED13FDEE13FEEF13C6
:10093200FF5010EC64CCFCED644CFDEE644EFEEF17
:1009420064CEFFD8DF8C088D098E0A8F0BEE547FA0
:0D095200FE228E088F0974A5F50AF50B2210
:1009DC00E4FFFE1204B8600C0FEF70010E09E97011
:0509EC00F20A80EF2279
:1004B800BB010689828A83E0225002E722BBFE0242
:0904C800E32289828A83E4932275
:1004D100BB010689828A83F0225002F722BBFE010A
:0204E100F32204
:1004E300BC000BBE0029EF8DF084FFADF022E4CCFD
:1004F300F875F008EF2FFFEE33FEEC33FCEE9DECC6
:10050300984005FCEE9DFE0FD5F0E9E4CEFD22ED0B
:10051300F8F5F0EE8420D21CFEADF075F008EF2F55
:10052300FFED33FD4007985006D5F0F222C398FD46
:050533000FD5F0EA22E3
:10053800FAE6FB0808E6F925F0F618E6CA3AF622C4
:10054800D083D082F8E4937012740193700DA3A342
:1005580093F8740193F5828883E473740293686056
:06056800EFA3A3A380DF56
:10095F00EFB40A07740D12096A740A309811A89936
:10096F00B8130CC2983098FDA899C298B811F630F8
:07097F0099FDC299F59922D0
:00000001FF
