:030000000203EA0E
:0C03EA00787FE4F6D8FD7581090203B3AA
:0B03F6003F065B4F666D7D077F6F00C8
:0A038900F583E493F5807F057E0004
:10039300EF1FAA0670011E4A6015E4FCFDC3ED942D
:0F03A30078EC6480948050E80DBD00010C80EE72
:0103B2002228
:10030C00AC07E41201BEE4FBFA79FA784312000E52
:10031C00E4FBFA797F78431201171201F28E088FF1
:10032C000975A0FDAE08AF097C007D6412027374E0
:10033C00F62FF58274033E12038975A0FBAE08AF4D
:10034C00097C007D0A1202737C007D0A1202737410
:10035C00F62DF58274033C12038975A0F7AE08AF35
:10036C00097C007D0A12027374F62DF58274033C2D
:0D037C00F583E493F5807F057E0002039376
:0F03DB00C296D295D294C293D292D291C290225E
:1003B3001203DB758902758CC8758AC8D2AFD2A9BE
:1003C300D28CC29200D29200C2923091FDD290AFF1
:0803D300B012030CC29080EA95
:03000B00020003ED
:03000300B2933283
:10000E00EC4D6011E8497017ED33EC3304600DE4EC
:10001E00FCFFFEFD22E933E8330470F802025E12A3
:10002E00022958046009E4CC2481500628500902A4
:10003E000268284003020265C0E0EB4A7044B980B2
:10004E0006D0E0FB020254EF4E701CBD8008EBFFA1
:10005E00EAFEE9FD80EBE98DF0A4FEE5F00200F783
:10006E00E9CDF9EAFEEBFFEF89F0A4FCE5F0CE89CD
:10007E00F0A42EFFE435F0CD89F0A42DFEE435F08A
:10008E008067EF4E7005BD80D780C3EF8BF0A4ACB8
:10009E00F0EE8BF0A42CFCE435F0F8EF8AF0A42CF3
:1000AE00E5F038FCE433CB8DF0A42CFCE5F03BF806
:1000BE00EE8AF0A42CFCE5F038F8E433CF89F0A4F6
:1000CE002CFCE5F038CF3400CE89F0A42FFFE5F0FC
:1000DE003EFEE433C98DF0A42EFEE5F039CD8AF054
:1000EE00A42FFFE5F03EFEE43DFD33D0E0FB5007CC
:1000FE000BBB000F020268EC2CFCEF33FFEE33FE5D
:06010E00ED33FD0202408A
:10011400020268EC5D046005E85904700302025EA3
:10012400120229580460F6EC4860F2EC7004FDFEFB
:10013400FF22C860DB2481C85009C39860025006BE
:100144000202659850CAF582E9294B4A7005AB82D0
:1001540002025475F0007C1A7880C3EF9BEE9AED8E
:1001640099400DC3EF9BFFEE9AFEED99FDE842F036
:10017400DC23ACF0D0E0FFD0E0FED0E0FDAB822089
:10018400E7101BEB60BAEC2CFCEF33FFEE33FEED13
:1001940033FD020240E803F830E705C0F075F000D3
:1001A400EF2FFFEE33FEED33FD40B830E7C280AAF7
:1001B40075F020800E75F010800575F0087D007EC6
:1001C400007F003392D530D5031202A9EC334010DE
:1001D400EF33FFEE33FEED33FDEC33FCD5F0ED22CF
:0E01E400E5F0247EA2D513CC92E7CDCEFF220B
:1001F200EDD2E7CD33EC3392D524814006E4FFFE05
:10020200FDFC22FCE4CFCECDCC24E0501174FF8063
:10021200EDC3CC13CCCD13CDCE13CECF13CF047000
:07022200F030D5DE0202A955
:10022900E9D2E7C933E833F892D5EDD2E7CD33EC1B
:0702390033FC5002B2D52294
:10024000EC30E7100FBF000C0EBE00080DBD00041F
:100250000BEB6014A2D5EB13FCED92E7FD2274FFCB
:10026000FCFDFEFF22E480F8A2D574FF13FC7D8024
:03027000E480EF38
:10027300C2D5EC30E709B2D5E4C39DFDE49CFCEEA6
:1002830030E715B2D5E4C39FFFE49EFE1202B7C365
:10029300E49DFDE49CFC80031202B730D507C3E460
:0602A3009FFFE49EFE2215
:0E02A900C3E49FFFE49EFEE49DFDE49CFC2266
:1002B700BC000BBE0029EF8DF084FFADF022E4CC2B
:1002C700F875F008EF2FFFEE33FEEC33FCEE9DECF4
:1002D700984005FCEE9DFE0FD5F0E9E4CEFD22ED3A
:1002E700F8F5F0EE8420D21CFEADF075F008EF2F84
:1002F700FFED33FD4007985006D5F0F222C398FD75
:050307000FD5F0EA2211
:00000001FF
