:030000000200B14A
:0C00B100787FE4F6D8FD75810802005F3E
:1000A10001030206040C080909080C0406020301F5
:08008300EC93F5907F3C7E0038
:10008B00EF1FAA0670011E4A600BE4FDEDC39478C6
:05009B0050EE0D80F79E
:0100A000223D
:020003008F0864
:10000500E4F9E50875F005A4FFE9C39FE5F0648010
:10001500F87480985015E4FC30B20A9000A11200E3
:0B002500830CBC08F330B2030980D745
:0100300022AD
:020031008F0836
:10003300E4F9E50875F005A4FFE9C39FE5F06480E2
:10004300F87480985015E4FC30B20A9000A91200AD
:0B005300830CBC08F330B2030980D717
:01005E00227F
:10005F007B0320B00A7580FEAF0312000380F320EC
:10006F00B10A7580FDAF0312003180E67580FB7514
:04007F00900180DE8E
:00000001FF
