:03000000020C5D92
:0C0C5D00787FE4F6D8FD758142020CA4FB
:0200030080C0BB
:070E1900120E7D7F017E0037
:100E2000EF1FAA0670011E4A600BE4FDEDC3947823
:050E300050EE0D80F7FB
:010E3500229A
:100E69007580FFC2A2C2A0D2A1D2A2AF80C2A2EF56
:030E790020E7ED82
:010E7C002253
:100E7D00AE07120E69C2A2C2A0C2A18E80D2A2007C
:030E8D00C2A222DC
:100E9000AE07120E69C2A2D2A0C2A18E80D2A20059
:030EA000C2A222C9
:060CE9008B258A268927F5
:100CEF00E4FCEF900003934DFF120E7DAB25AA2677
:100CFF00A9278C82758300120593FF6007120E904F
:100D0F000CBC10E8ECC3941050087F20120E900C0E
:020D1F0080F260
:010D210022AF
:100E36007F38120E197F01120E197F06120E197FC6
:0B0E46000C120E7D7F017E00020E20CA
:100D530074656D703A202025352E3166DF430020FF
:100D630020726563656E742074656D700020205772
:0E0D7300616974696E672E2E2E2E2E2E2E00B4
:040EB2000219000021
:03000B00020A8561
:100A8500C0E0C0F0C083C082C0D075D000C000C037
:100A950001C002C003C004C005C006C007051AE5B1
:100AA5001A70020519758A34758C34E51A640A457D
:100AB500196003020C42F519F51A120D81EF640154
:100AC5006003020C42F519F51AE542AD41FCEC1242
:100AD500027EE4FBFA7980783D1201068F1E8E1D99
:100AE5008D1C8C1B7528FF75290D752A538F2E8E2D
:100AF5002D8D2C8C2B7B007A0079081206727B00D9
:100B05007A007908E4FD7F01120CE9E4FFFE7D9689
:100B15007C42AB1EAA1DA91CA81B12020C400C7519
:100B25001E00751D00751C96751B42E4FFFEFDFC3D
:100B3500AB1EAA1DA91CA81B12020C6002500C7545
:100B45001E00751D00751C00751B00E4FFFE7D343D
:100B55007C42AB1EAA1DA91CA81B12020C4066D222
:100B650090C291E4FFFE7D347C42AB1EAA1DA91CF8
:100B7500A81B12020C7005C292020C42E4FFFE7D16
:100B8500967C42AB1EAA1DA91CA81B12020C70055F
:100B9500D292020C42D292E4FFFE7D347CC2AB1E9F
:100BA500AA1DA91CA81B1200151202B7120E20C2FD
:100BB50092AB1EAA1DA91CA81BE4FFFE7D967C42D4
:100BC500120011806CE4FFFE7D207C41AB1EAA1D46
:100BD500A91CA81B12020C6002505EC290D291E4BF
:100BE500FFFE7D207C41AB1EAA1DA91CA81B12027D
:100BF5000C7004C2928046E4FFFEFDFCAB1EAA1DEC
:100C0500A91CA81B12020C7004D2928030D292ABA0
:100C15001EAA1DA91CA81BE4FFFE7D207C41120015
:100C2500111202B7120E20C292AF1EAE1DAD1CAC42
:100C35001B1202B7120E208004C290C291D007D0B9
:100C450006D005D004D003D002D001D000D0D0D03A
:080C550082D083D0F0D0E03220
:100D2200120E367BFF7A0D7962E4FDFF120CE97B2D
:100D3200FF7A0D7970E4FD7F01120CE9120D817FBB
:100D4200DC7E05120E20758901D2AFD2A9D28C8029
:010D5200FEA2
:040EB60002410000F5
:040EA3007F087E0046
:0B0EA700EF1FAC0670011E4C70F6221D
:100DD500D2B3120EA3C2B37F5A7E00120EA7D2B3AE
:100DE5007F057E00120EA7A2B3E433FD7F5A7E0075
:050DF500120EA7AF057E
:010DFA0022D6
:100DFB00E4FD7B01EB6014C2B300D2B30030B3024D
:0D0E0B004205120EA3EB25E0FB80E9AF05C8
:010E180022B7
:020E5100AD07EB
:100E5300E4FBD2B300C2B300EDC313FD92B3120E91
:050E6300A30BBB08ED2C
:010E68002267
:100D8100120DD5BF01037F00227FCC120E517F448B
:100D9100120E51120DD57FCC120E517FBE120E5183
:0D0DA100120DFB8F41120DFB8F427F0122CE
:10000E00020323E86480F8E933E83360110460F0FA
:10001E00ED33EC337009E8FCE9FDEAFEEBFF220458
:10002E0060DED3EB9FEA9EE99DE8C2E78CF0C2F753
:10003E0095F0400CE8CCF8E9CDF9EACEFAEBCFFB1F
:10004E001202EE85D0F05804700320D5B3E8047088
:10005E00075002B2D502032D92D5EC0460F7E4CC22
:10006E00C0E0C398F8603B94186008400DD0E0FBE8
:10007E00020305E4FBFAC9FC8028E830E406E4C973
:10008E00FBE4CAFCE830E305E4C9CACBFCE854073C
:10009E006010F8C3E913F9EA13FAEB13FBEC13FC47
:1000AE00D8F130F52FC3E49CFCEF9BFFEE9AFEEDEA
:1000BE0099FDD0E0FBEF4E4D4C701222DB03020394
:1000CE002AEC2CFCEF33FFEE33FEED33FDED30E783
:1000DE00EB020305EF2BFFEE3AFEED39FDD0E0FB10
:1000EE0050130BBB000302032DED13FDEE13FEEFB9
:0800FE0013FFEC13FC020305E3
:10010600EC4D6011E8497017ED33EC3304600DE4F3
:10011600FCFFFEFD22E933E8330470F802032312E4
:1001260002EE58046009E4CC2481500628500902E6
:10013600032D28400302032AC0E0EB4A7044B9802D
:1001460006D0E0FB020319EF4E701CBD8008EBFFE2
:10015600EAFEE9FD80EBE98DF0A4FEE5F00201EF91
:10016600E9CDF9EAFEEBFFEF89F0A4FCE5F0CE89D4
:10017600F0A42EFFE435F0CD89F0A42DFEE435F091
:100186008067EF4E7005BD80D780C3EF8BF0A4ACBF
:10019600F0EE8BF0A42CFCE435F0F8EF8AF0A42CFA
:1001A600E5F038FCE433CB8DF0A42CFCE5F03BF80D
:1001B600EE8AF0A42CFCE5F038F8E433CF89F0A4FD
:1001C6002CFCE5F038CF3400CE89F0A42FFFE5F003
:1001D6003EFEE433C98DF0A42EFEE5F039CD8AF05B
:1001E600A42FFFE5F03EFEE43DFD33D0E0FB5007D3
:1001F6000BBB000F02032DEC2CFCEF33FFEE33FE9E
:06020600ED33FD020305CB
:10020C0074F8CC6480CCC86480C8F582046043C3A5
:10021C00EB9FF5F0EA9E42F0E99D42F0E89C45F038
:10022C0060305018E5825FFFE582F42B5582FB505D
:10023C00210ABA001D09B90019088016E5825BFB7A
:10024C00E582F42F5582FF50090EBE00050DBD004E
:10025C00010CC3EB9FF5F0EA9E42F0E99D42F0E8F9
:0D026C009C45F06007CC4820E701B3EC2270
:1002790075F020800E75F010800575F0087D007E00
:10028900007F003392D530D5031205D2EC334010EC
:10029900EF33FFEE33FEED33FDEC33FCD5F0ED2209
:0E02A900E5F0247EA2D513CC92E7CDCEFF2245
:1002B700EDD2E7CD33EC3392D524814006E4FFFE3F
:1002C700FDFC22FCE4CFCECDCC24E0501174FF809E
:1002D700EDC3CC13CCCD13CDCE13CECF13CF04703B
:0702E700F030D5DE0205D264
:10061600E53C2428F8E6053C2278253007027828B0
:10062600E475F0011205E002057A2000EB7F2ED278
:10063600008018EF540F2490D43440D4FF30040BBC
:10064600EF24BFB41A0050032461FFE53D60021594
:100656003D0540E5407002053F30070D7825E475FD
:10066600F0011205E0EF0205C0020DAE7403D207D9
:100676008003E4C207F53C8B258A268927E4F53DED
:10068600F53FF540E53D60077F2012065180F57580
:100696003EFFC201C200C202C203C205C206C208B0
:1006A60012061FFF700D3007057F00120662AF406D
:1006B600AE3F22B4255FC2D5C20412061FFF24D066
:1006C600B40A00501A75F00A783D30D50508B6FF11
:1006D6000106C6A426F620D5047002D20380D924CA
:1006E600CFB41A00EF5004C2E5D20402094FD2017A
:1006F60080C6D20080C0D20280BCD2D580BAD205D4
:1007060080B47F201206512002077401B53D0040D7
:10071600F1120616FF12065102068AD208D2068088
:1007260095120616FB120616FA120616F94A4B70B1
:100736000679467A0A7BFF20022EE53D602A7E0076
:100746008E8275830012059360060EEE653E70F08C
:10075600C2D5EBC0E0EAC0E0E9C0E0EE1209AFD0D6
:10076600E0F9D0E0FAD0E0FB12057AFF60AAEBC010
:10077600E0EAC0E0E9C0E0120651D0E02401F9D079
:10078600E03400FAD0E0FBE53E0460DCD53ED980DB
:1007960087D20280A212099260F7E53E7001041228
:1007A6000338A93E600DE53E600914F53E120A398C
:1007B600EF60F3EA30E702F404C3995077EAF425D0
:1007C6003E0430E701E404F53E800D12099260C153
:1007D600EA053E253E120338EA783BF630E701E4A7
:1007E600253E04D53E04200501141209AFE4C0E0FD
:1007F600120A39783BE6601320E70714F612063929
:10080600802204F6D0E014C0E07F00120639E53EEF
:100816006007120630153E800B300503120630D0F5
:10082600E002068AD0E00480C512099260A0E53E87
:1008360004120338783BEAF6E53E2005026001041F
:0508460024041209AFBB
:10084B0074FF04C0E0120A39120639E53E20050296
:10085B006003120630D0E0B53EE87F4512064378C0
:10086B003BE67F2B30E7047F2DF404C0E0120651EA
:10087B00D0E075F00A84C0F012063AD0E012063AC6
:10088B0002068A791080027908C206C2088008D253
:10089B00D5790A8004790AC2D5E53E047002F53E8B
:1008AB00E4FAFDFEFF120616FC7B0820011312066C
:1008BB0016FD7B1030000A120616FE120616FF7B81
:1008CB0020EC3382D592D55013C3E43000069FFF42
:1008DB00E49EFEE42001039DFDE49CFCE4CBF8C206
:1008EB0001EC700CCFCECDCCE824F8F870F3801768
:1008FB00C3EF33FFEE33FEED33FDEC33FCEB33FB99
:10090B00994002FB0FD8E9EB300105F8D0E0C44861
:10091B00B201C0E00AEC4D4E4F78207B0070C2EA6A
:10092B00B53E0040BCC0E01209B1D0F0D0E02001D0
:10093B0004C4C0E0C4B201C0F012063AD0F0D5F046
:10094B00EB02068A1205F0072753088E5806F84C5F
:10095B0006F44208924F089A44089A49070D430837
:10096B00A05507D146082F45079B470A665006FC42
:10097B002D07002E07232B0704230721200A4F2ABC
:10098B0006BC480000071BE53EB4FF03753E06128C
:10099B000616FC120616FD120616FE120616FF7838
:1009AB0034020367790AA2D5200314300509B91064
:1009BB00020404B9080104A2D52006025001042048
:1009CB0002689202B53D005034C0E07F203003191D
:1009DB007F30A20272067205500F120A08C202C2C1
:1009EB0006C205C2087F30800F300503E9C0E01254
:1009FB000651300503D0E0F9D0E0B53DCC300517FA
:100A0B007F30B9100C1206517F583004077F788065
:100A1B0003B908031206513002057F2D0206517FE0
:100A2B00202008F87F2B2006F322920280CF7F0034
:100A3B00B4070050052434F8E6FF22286E756C6C61
:100A4B002900D2011206163001F8C201783D30D5CB
:100A5B000108F60206BC2D50434958120616240312
:100A6B00B405004001E4900A6193120642743A12F5
:0A0A7B000642D203753D0402088E06
:1002EE00E9D2E7C933E833F892D5EDD2E7CD33EC56
:0702FE0033FC5002B2D522CF
:10030500EC30E7100FBF000C0EBE00080DBD000459
:100315000BEB6014A2D5EB13FCED92E7FD2274FF05
:10032500FCFDFEFF22E480F8A2D574FF13FC7D805E
:03033500E480EF72
:10033800F920E72824F950037907E4F42402FB188C
:10034800DBFDE624FB5014E9600DE4F618E604F63C
:0F035800B40A08E4F6D9F57401F60A22C2D522D8
:10036700ED33EC3392D5FA602AB4FF33EDC2E77B65
:10037700FF60067A03798CE4227A03799520D50405
:100387007A037990224E614E002B494E46002D4943
:100397004E4600E47A08F608DAFC7B00740722E888
:1003A700C0E0ECC0E0EDC0E0EEC0E0EFC0E0EA7511
:1003B700F010A4CAABF075F04DA42BFBE435F0FCAC
:1003C700EA2410FAEB34C5FBEC34D9FCEDC2E7FFA5
:1003D70075F056A4F42411C5F0F434C58FF0A42A9F
:1003E700E5F03BE43CF620E71412053AD0E0FFD0F5
:1003F700E0FED0E0FDD0E0FC12046D8014F404129E
:10040700053AD0E0FFD0E0FED0E0FDD0E0FC1201DD
:1004170006D0E0F8E6FAEDD2E7CD33EC332482FBE1
:10042700E4C3CF33CFCE33CECD33CD33DBF37B072E
:1004370075F00A846004F6081B0AE5F0F6088FF0E9
:10044700740AA4FFACF08EF0740AA42CFEACF05032
:10045700010C8DF0740AA42CFDE435F0F608DBDE00
:03046700740722F5
:10046A0002032DEC5D046005E859047003020323BE
:10047A001202EE580460F6EC4860F2EC7004FDFEDD
:10048A00FF22C860DB2481C85009C3986002500665
:10049A0002032A9850CAF582E9294B4A7005AB82B1
:1004AA0002031975F0007C1A7880C3EF9BEE9AED6F
:1004BA0099400DC3EF9BFFEE9AFEED99FDE842F0DD
:1004CA00DC23ACF0D0E0FFD0E0FED0E0FDAB822030
:1004DA00E7101BEB60BAEC2CFCEF33FFEE33FEEDBA
:1004EA0033FD020305E803F830E705C0F075F000B4
:1004FA00EF2FFFEE33FEED33FD40B830E7C280AA9E
:10050A003F8000004120000042C80000447A0000F9
:10051A00461C400047C35000497424004B1896807B
:10052A004CBEBC205A0E1BCA6753C21C749DC5AE72
:10053A00FB60065407601C2323120568EB543860DD
:10054A0009120554120563120106ECF8EDF9EEFAE8
:10055A00EFCB22EB12056380F1543803241C90057B
:10056A000AFE93FC0EEE93FD0EEE930ECE93FF223F
:100C6900020D22E493A3F8E493A34003F68001F272
:100C790008DFF48029E493A3F85407240CC8C3338C
:100C8900C4540F4420C8834004F456800146F6DF5B
:100C9900E4800B0102040810204080900EB2E47E2B
:100CA900019360BCA3FF543F30E509541FFEE49350
:100CB900A360010ECF54C025E060A840B8E493A317
:100CC900FAE493A3F8E493A3C8C582C8CAC583CA42
:100CD900F0A3C8C582C8CAC583CADFE9DEE780BEFA
:010EBA000037
:10057A00BB010689828A83E0225002E722BBFE027F
:09058A00E32289828A83E49322B2
:10059300BB010CE58229F582E5833AF583E022501D
:1005A30006E92582F8E622BBFE06E92582F8E22267
:0D05B300E58229F582E5833AF583E4932281
:1005C000BB010689828A83F0225002F722BBFE011A
:0205D000F32214
:0E05D200C3E49FFFE49EFEE49DFDE49CFC223A
:1005E000FAE6FB0808E6F925F0F618E6CA3AF6221C
:1005F000D083D082F8E4937012740193700DA3A39A
:1006000093F8740193F5828883E4737402936860AD
:06061000EFA3A3A380DFAD
:100DAE00EFB40A07740D120DB9740A309811A89990
:100DBE00B8130CC2983098FDA899C298B811F630A5
:070DCE0099FDC299F599227D
:00000001FF
