:03000000020C2EC1
:0C0C2E00787FE4F6D8FD758152020C7549
:020E5A0080C056
:070DBC00120E207F017E00F2
:100DC300EF1FAA0670011E4A600BE4FDEDC3947881
:050DD30050EE0D80F759
:010DD80022F8
:100E0C007580FFC2A2C2A0D2A1D2A2AF80C2A2EFB3
:030E1C0020E7EDDF
:010E1F0022B0
:100E2000AE07120E0CC2A2C2A0C2A18E80D2A20036
:030E3000C2A22239
:100E3300AE07120E0CC2A2D2A0C2A18E80D2A20013
:030E4300C2A22226
:060CBA008B378A388939EE
:100CC000E4FCEF900E5A934DFF120E20AB37AA387A
:100CD000A9398C82758300120588FF6007120E33D4
:100CE0000CBC10E8ECC3941050087F20120E330C9B
:020CF00080F290
:010CF20022DF
:100DD9007F38120DBC7F01120DBC7F06120DBC7F3E
:0B0DE9000C120E207F017E00020DC3E3
:100CF3002020524543454E542054454D502020203A
:100D030000202020202057414954494E472E2E2EA3
:100D13002E0054454D503A202025352E3166DF43B1
:010D230000CF
:100A7A00E4F525F524F523F522120DD97BFF7A0C2E
:100A8A0079F3E4FDFF120CBA7BFF7A0D7904E4FDD9
:100A9A007F01120CBA120D247FF47E01120DC312CB
:100AAA000D24EF7003020C24E509AD08FCEC1202D8
:100ABA0073E4FBFA7980783D1200FB8F258E248D32
:100ACA00238C22753AFF753B0D753C158F408E3F7E
:100ADA008D3E8C3D7B007A0079261206677B007A70
:100AEA00007926E4FD7F01120CBAE4FFFE7D967CB4
:100AFA0042AB25AA24A923A822120201400BE4F53D
:100B0A0025F524752396752242E4FFFEFDFCAB25EC
:100B1A00AA24A923A82212020160025009E4F52599
:100B2A00F524F523F522E4FFFE7D347C42AB25AAA9
:100B3A0024A923A8221202014066D290C291E4FF9E
:100B4A00FE7D347C42AB25AA24A923A822120201E5
:100B5A007005C292020C24E4FFFE7D967C42AB250E
:100B6A00AA24A923A8221202017005D292020C24F7
:100B7A00D292E4FFFE7D347CC2AB25AA24A923A825
:100B8A002212000A1202AC120DC3C292AB25AA2489
:100B9A00A923A822E4FFFE7D967C42120006806CFF
:100BAA00E4FFFE7D207C41AB25AA24A923A82212BA
:100BBA0002016002505EC290D291E4FFFE7D207C69
:100BCA0041AB25AA24A923A8221202017004C292C9
:100BDA008048E4FFFEFDFCAB25AA24A923A8221223
:100BEA0002017004D2928032D292AB25AA24A923A0
:100BFA00A822E4FFFE7D207C411200061202AC12FC
:100C0A000DC3C292AF25AE24AD23AC221202AC12A0
:100C1A000DC38006C290C291C2927F327E00120D2D
:040C2A00C3020AA94E
:040E5500020800008F
:040E46007F087E00A3
:0B0E4A00EF1FAC0670011E4C70F6227A
:100D7800D2B3120E46C2B37F5A7E00120E4AD2B3C5
:100D88007F057E00120E4AA2B3E433FD7F5A7E002F
:050D9800120E4AAF0538
:010D9D002233
:100D9E00E4FD7B01EB6014C2B300D2B30030B302AA
:0D0DAE004205120E46EB25E0FB80E9AF0583
:010DBB002215
:020DF400AD0749
:100DF600E4FBD2B300C2B300EDC313FD92B3120EEF
:050E0600460BBB08EDE6
:010E0B0022C4
:100D2400120D78BF01037F00227FCC120DF47F44A3
:100D3400120DF4120D787FCC120DF47FBE120DF457
:0D0D4400120D9E8F08120D9E8F097F012257
:10000300020318E86480F8E933E83360110460F010
:10001300ED33EC337009E8FCE9FDEAFEEBFF220463
:1000230060DED3EB9FEA9EE99DE8C2E78CF0C2F75E
:1000330095F0400CE8CCF8E9CDF9EACEFAEBCFFB2A
:100043001202E385D0F05804700320D5B3E804709E
:10005300075002B2D502032292D5EC0460F7E4CC38
:10006300C0E0C398F8603B94186008400DD0E0FBF3
:100073000202FAE4FBFAC9FC8028E830E406E4C98A
:10008300FBE4CAFCE830E305E4C9CACBFCE8540747
:100093006010F8C3E913F9EA13FAEB13FBEC13FC52
:1000A300D8F130F52FC3E49CFCEF9BFFEE9AFEEDF5
:1000B30099FDD0E0FBEF4E4D4C701222DB0302039F
:1000C3001FEC2CFCEF33FFEE33FEED33FDED30E799
:1000D300EB0202FAEF2BFFEE3AFEED39FDD0E0FB27
:1000E30050130BBB0003020322ED13FDEE13FEEFCF
:0800F30013FFEC13FC0202FAFA
:1000FB00EC4D6011E8497017ED33EC3304600DE4FF
:10010B00FCFFFEFD22E933E8330470F802031812FA
:10011B0002E358046009E4CC2481500628500902FC
:10012B00032228400302031FC0E0EB4A7044B9804E
:10013B0006D0E0FB02030EEF4E701CBD8008EBFFF8
:10014B00EAFEE9FD80EBE98DF0A4FEE5F00201E4A7
:10015B00E9CDF9EAFEEBFFEF89F0A4FCE5F0CE89DF
:10016B00F0A42EFFE435F0CD89F0A42DFEE435F09C
:10017B008067EF4E7005BD80D780C3EF8BF0A4ACCA
:10018B00F0EE8BF0A42CFCE435F0F8EF8AF0A42C05
:10019B00E5F038FCE433CB8DF0A42CFCE5F03BF818
:1001AB00EE8AF0A42CFCE5F038F8E433CF89F0A408
:1001BB002CFCE5F038CF3400CE89F0A42FFFE5F00E
:1001CB003EFEE433C98DF0A42EFEE5F039CD8AF066
:1001DB00A42FFFE5F03EFEE43DFD33D0E0FB5007DE
:1001EB000BBB000F020322EC2CFCEF33FFEE33FEB4
:0601FB00ED33FD0202FAE3
:1002010074F8CC6480CCC86480C8F582046043C3B0
:10021100EB9FF5F0EA9E42F0E99D42F0E89C45F043
:1002210060305018E5825FFFE582F42B5582FB5068
:10023100210ABA001D09B90019088016E5825BFB85
:10024100E582F42F5582FF50090EBE00050DBD0059
:10025100010CC3EB9FF5F0EA9E42F0E99D42F0E804
:0D0261009C45F06007CC4820E701B3EC227B
:10026E0075F020800E75F010800575F0087D007E0B
:10027E00007F003392D530D5031205C7EC33401002
:10028E00EF33FFEE33FEED33FDEC33FCD5F0ED2214
:0E029E00E5F0247EA2D513CC92E7CDCEFF2250
:1002AC00EDD2E7CD33EC3392D524814006E4FFFE4A
:1002BC00FDFC22FCE4CFCECDCC24E0501174FF80A9
:1002CC00EDC3CC13CCCD13CDCE13CECF13CF047046
:0702DC00F030D5DE0205C77A
:10060B00E54E243AF8E6054E227837300702783A61
:10061B00E475F0011205D502056F2000EB7F2ED299
:10062B00008018EF540F2490D43440D4FF30040BC7
:10063B00EF24BFB41A0050032461FFE54F6002158D
:10064B004F0552E5527002055130070D7837E475AE
:10065B00F0011205D5EF0205B5020D517403D20757
:10066B008003E4C207F54E8B378A388939E4F54F9E
:10067B00F551F552E54F60077F2012064680F57560
:10068B0050FFC201C200C202C203C205C206C208A9
:10069B00120614FF700D3007057F00120657AF527C
:1006AB00AE5122B4255FC2D5C204120614FF24D06A
:1006BB00B40A00501A75F00A784F30D50508B6FF0A
:1006CB000106C6A426F620D5047002D20380D924D5
:1006DB00CFB41A00EF5004C2E5D204020944D20190
:1006EB0080C6D20080C0D20280BCD2D580BAD205DF
:1006FB0080B47F201206462002077401B54F0040DC
:10070B00F112060BFF12064602067FD208D20680B4
:10071B009512060BFB12060BFA12060BF94A4B70DD
:10072B0006793B7A0A7BFF20022EE54F602A7E007A
:10073B008E8275830012058860060EEE655070F090
:10074B00C2D5EBC0E0EAC0E0E9C0E0EE1209A4D0EC
:10075B00E0F9D0E0FAD0E0FB12056FFF60AAEBC026
:10076B00E0EAC0E0E9C0E0120646D0E02401F9D08F
:10077B00E03400FAD0E0FBE5500460DCD550D980C2
:10078B0087D20280A212098760F7E550700104122C
:10079B00032DA950600DE550600914F550120A2E77
:1007AB00EF60F3EA30E702F404C3995077EAF425DB
:1007BB00500430E701E404F550800D12098760C145
:1007CB00EA0550255012032DEA784DF630E701E487
:1007DB00255004D55004200501141209A4E4C0E0EF
:1007EB00120A2E784DE6601320E70714F612062E38
:1007FB00802204F6D0E014C0E07F0012062EE550F4
:10080B0060071206251550800B300503120625D004
:10081B00E002067FD0E00480C512098760A0E55096
:10082B000412032D784DEAF6E55020050260010411
:05083B0024041209A4D1
:1008400074FF04C0E0120A2E12062EE550200502A5
:100850006003120625D0E0B550E87F4512063878CF
:100860004DE67F2B30E7047F2DF404C0E0120646EE
:10087000D0E075F00A84C0F012062FD0E012062FE7
:1008800002067F791080027908C206C2088008D269
:10089000D5790A8004790AC2D5E550047002F55072
:1008A000E4FAFDFEFF12060BFC7B08200113120682
:1008B0000BFD7B1030000A12060BFE12060BFF7BAD
:1008C00020EC3382D592D55013C3E43000069FFF4D
:1008D000E49EFEE42001039DFDE49CFCE4CBF8C211
:1008E00001EC700CCFCECDCCE824F8F870F3801773
:1008F000C3EF33FFEE33FEED33FDEC33FCEB33FBA4
:10090000994002FB0FD8E9EB300105F8D0E0C4486C
:10091000B201C0E00AEC4D4E4F78207B0070C2EA75
:10092000B5500040BCC0E01209A6D0F0D0E02001D4
:1009300004C4C0E0C4B201C0F012062FD0F0D5F05C
:10094000EB02067F1205E5071C5308835806ED4CA1
:1009500006E94208874F088F44088F490702430879
:10096000955507C6460824450790470A5B5006F18F
:100970002D06F52E07182B06F9230716200A442A00
:1009800006B14800000710E550B4FF037550061289
:10099000060BFC12060BFD12060BFE12060BFF786F
:1009A0004602035C790AA2D5200314300509B91068
:1009B000020404B9080104A2D52006025001042053
:1009C00002689202B54F005034C0E07F2030031916
:1009D0007F30A20272067205500F1209FDC202C2D8
:1009E00006C205C2087F30800F300503E9C0E0125F
:1009F0000646300503D0E0F9D0E0B54FCC300517FE
:100A00007F30B9100C1206467F583004077F78807B
:100A100003B908031206463002057F2D0206467F01
:100A2000202008F87F2B2006F322920280CF7F003F
:100A3000B4070050052446F8E6FF22286E756C6C5A
:100A40002900D20112060B3001F8C201784F30D5CF
:100A50000108F60206B12D5043495812060B240333
:100A6000B405004001E4900A5693120637743A1216
:0A0A70000637D203754F0402088315
:1002E300E9D2E7C933E833F892D5EDD2E7CD33EC61
:0702F30033FC5002B2D522DA
:1002FA00EC30E7100FBF000C0EBE00080DBD000465
:10030A000BEB6014A2D5EB13FCED92E7FD2274FF10
:10031A00FCFDFEFF22E480F8A2D574FF13FC7D8069
:03032A00E480EF7D
:10032D00F920E72824F950037907E4F42402FB1897
:10033D00DBFDE624FB5014E9600DE4F618E604F647
:0F034D00B40A08E4F6D9F57401F60A22C2D522E3
:10035C00ED33EC3392D5FA602AB4FF33EDC2E77B70
:10036C00FF60067A037981E4227A03798A20D50426
:10037C007A037985224E614E002B494E46002D4959
:10038C004E4600E47A08F608DAFC7B00740722E893
:10039C00C0E0ECC0E0EDC0E0EEC0E0EFC0E0EA751C
:1003AC00F010A4CAABF075F04DA42BFBE435F0FCB7
:1003BC00EA2410FAEB34C5FBEC34D9FCEDC2E7FFB0
:1003CC0075F056A4F42411C5F0F434C58FF0A42AAA
:1003DC00E5F03BE43CF620E71412052FD0E0FFD00B
:1003EC00E0FED0E0FDD0E0FC1204628014F40412B4
:1003FC00052FD0E0FFD0E0FED0E0FDD0E0FC1200F5
:10040C00FBD0E0F8E6FAEDD2E7CD33EC332482FBF7
:10041C00E4C3CF33CFCE33CECD33CD33DBF37B0739
:10042C0075F00A846004F6081B0AE5F0F6088FF0F4
:10043C00740AA4FFACF08EF0740AA42CFEACF0503D
:10044C00010C8DF0740AA42CFDE435F0F608DBDE0B
:03045C0074072200
:10045F00020322EC5D046005E859047003020318DF
:10046F001202E3580460F6EC4860F2EC7004FDFEF3
:10047F00FF22C860DB2481C85009C3986002500670
:10048F0002031F9850CAF582E9294B4A7005AB82C7
:10049F0002030E75F0007C1A7880C3EF9BEE9AED85
:1004AF0099400DC3EF9BFFEE9AFEED99FDE842F0E8
:1004BF00DC23ACF0D0E0FFD0E0FED0E0FDAB82203B
:1004CF00E7101BEB60BAEC2CFCEF33FFEE33FEEDC5
:1004DF0033FD0202FAE803F830E705C0F075F000CB
:1004EF00EF2FFFEE33FEED33FD40B830E7C280AAA9
:1004FF003F8000004120000042C80000447A000005
:10050F00461C400047C35000497424004B18968086
:10051F004CBEBC205A0E1BCA6753C21C749DC5AE7D
:10052F00FB60065407601C232312055DEB543860F3
:10053F00091205491205581200FBECF8EDF9EEFA15
:10054F00EFCB22EB12055880F1543803241C900492
:10055F00FFFE93FC0EEE93FD0EEE930ECE93FF2255
:100C3A00020A7AE493A3F8E493A34003F68001F24C
:100C4A0008DFF48029E493A3F85407240CC8C333BB
:100C5A00C4540F4420C8834004F456800146F6DF8A
:100C6A00E4800B0102040810204080900E55E47EB7
:100C7A00019360BCA3FF543F30E509541FFEE4937F
:100C8A00A360010ECF54C025E060A840B8E493A346
:100C9A00FAE493A3F8E493A3C8C582C8CAC583CA71
:100CAA00F0A3C8C582C8CAC583CADFE9DEE780BE29
:010E59000098
:10056F00BB010689828A83E0225002E722BBFE028A
:09057F00E32289828A83E49322BD
:10058800BB010CE58229F582E5833AF583E0225028
:1005980006E92582F8E622BBFE06E92582F8E22272
:0D05A800E58229F582E5833AF583E493228C
:1005B500BB010689828A83F0225002F722BBFE0125
:0205C500F3221F
:0E05C700C3E49FFFE49EFEE49DFDE49CFC2245
:1005D500FAE6FB0808E6F925F0F618E6CA3AF62227
:1005E500D083D082F8E4937012740193700DA3A3A5
:1005F50093F8740193F5828883E4737402936860B9
:06060500EFA3A3A380DFB8
:100D5100EFB40A07740D120D5C740A309811A8994A
:100D6100B8130CC2983098FDA899C298B811F63002
:070D710099FDC299F59922DA
:00000001FF
