:040C7900021900005C
:100C0500EF1FAA0670011E4A600BE4FDEDC3947840
:050C150050EE0D80F718
:010C1A0022B7
:040C6B007F087E0080
:0A0C6F00EF1F70011E144E70F722F3
:100BC100D2B4120C6BC2B47F5A7E00120C6FD2B435
:100BD1007F057E00120C6FA2B4E433FD7F5A7E00C4
:050BE100120C6FAF05CE
:010BE60022EC
:100BE700E4FD7C01EC6014C2B400D2B40030B4025E
:0D0BF7004205120C6BEC25E0FC80E9AF0517
:010C040022CD
:020C1B00AD0723
:100C1D00E4FCC2B4EDC313FD92B4120C6BD2B40C50
:030C2D00BC08EF11
:010C300022A1
:100B4400120BC1BF01037F00227FCC120C1B7F4418
:100B5400120C1B120BC17FCC120C1B7FBE120C1B80
:0D0B6400120BE78F19120BE78F1A7F012289
:020C7E0080C034
:100C31007580FFC2A2C2A0D2A1D2A2AF80C2A2EF90
:030C410020E7EDBC
:010C4400228D
:100C4500AE07120C31C2A2C2A0C2A18E80D2A200F0
:030C5500C2A22216
:100C5800AE07120C31C2A2D2A0C2A18E80D2A200CD
:030C6800C2A22203
:100B14007F38120C457F017E00120C057F01120CF8
:100B2400457F017E00120C057F06120C457F017E75
:100B340000120C057F0C120C457F017E00020C058F
:060B71008B268A2789286B
:100B7700E4FCEF900C7E934DFF120C45AB26AA27A1
:100B8700A9288C827583001204E4FF120C580CBC50
:020B970010EA62
:010B99002239
:100AE2002020445331384232302054657374202020
:100AF20000202057616974696E672E2E2E2E2E20DB
:100B0200200054454D503A202025352E316620DFF5
:020B120043009E
:100A6200E4F525F524F523F522120B147BFF7A0A0F
:100A720079E2E4FDFF120B717BFF7A0A79F3E4FD60
:100A82007F01120B71120B447FDC7E05120C0512E2
:100A92000B44EF6042E51AAD19FCEC12010EE4FBC7
:100AA200FA7980783D1200038F258E248D238C22C3
:100AB2007529FF752A0B752B048F2F8E2E8D2D8C89
:100AC2002C7B007A0079081205C37B007A00790832
:100AD200E4FD7F01120B717F327E00120C0580AFA4
:10000300EC4D6011E8497017ED33EC3304600DE4F7
:10001300FCFFFEFD22E933E8330470F802017C1291
:10002300014758046009E4CC248150062850090292
:100033000186284003020183C0E0EB4A7044B98083
:1000430006D0E0FB020172EF4E701CBD8008EBFF8F
:10005300EAFEE9FD80EBE98DF0A4FEE5F00200EC99
:10006300E9CDF9EAFEEBFFEF89F0A4FCE5F0CE89D8
:10007300F0A42EFFE435F0CD89F0A42DFEE435F095
:100083008067EF4E7005BD80D780C3EF8BF0A4ACC3
:10009300F0EE8BF0A42CFCE435F0F8EF8AF0A42CFE
:1000A300E5F038FCE433CB8DF0A42CFCE5F03BF811
:1000B300EE8AF0A42CFCE5F038F8E433CF89F0A401
:1000C3002CFCE5F038CF3400CE89F0A42FFFE5F007
:1000D3003EFEE433C98DF0A42EFEE5F039CD8AF05F
:1000E300A42FFFE5F03EFEE43DFD33D0E0FB5007D7
:1000F3000BBB000F020186EC2CFCEF33FFEE33FE4B
:06010300ED33FD02015E78
:1001090075F020800E75F010800575F0087D007E71
:10011900007F003392D530D503120523EC3340100C
:10012900EF33FFEE33FEED33FDEC33FCD5F0ED227A
:0E013900E5F0247EA2D513CC92E7CDCEFF22B6
:10056700E53D2429F8E6053D22782630070278295B
:10057700E475F0011205310204CB2000EB7F2ED287
:10058700008018EF540F2490D43440D4FF30040B6C
:10059700EF24BFB41A0050032461FFE53E60021543
:1005A7003E0541E5417002054030070D7826E475A8
:1005B700F001120531EF020511020B9A7403D207FD
:1005C7008003E4C207F53D8B268A278928E4F53E98
:1005D700F540F541E53E60077F201205A280F575DD
:1005E7003FFFC201C200C202C203C205C206C2085F
:1005F700120570FF700D3007057F001205B3AF417C
:10060700AE4022B4255FC2D5C204120570FF24D0C4
:10061700B40A00501A75F00A783E30D50508B6FFBF
:100627000106C6A426F620D5047002D20380D92479
:10063700CFB41A00EF5004C2E5D2040208A0D201D9
:1006470080C6D20080C0D20280BCD2D580BAD20583
:1006570080B47F201205A22002077401B53E004036
:10066700F1120567FF1205A20205DBD208D2068048
:1006770095120567FB120567FA120567F94A4B7071
:100687000679977A097BFF20022EE53E602A7E00D5
:100697008E827583001204E460060EEE653F70F0EB
:1006A700C2D5EBC0E0EAC0E0E9C0E0EE120900D035
:1006B700E0F9D0E0FAD0E0FB1204CBFF60AAEBC070
:1006C700E0EAC0E0E9C0E01205A2D0E02401F9D0D9
:1006D700E03400FAD0E0FBE53F0460DCD53FD98089
:1006E70087D20280A21208E360F7E53F7001041287
:1006F7000191A93F600DE53F600914F53F12098A92
:10070700EF60F3EA30E702F404C3995077EAF4257F
:100717003F0430E701E404F53F800D1208E360C1B0
:10072700EA053F253F120191EA783CF630E701E4FC
:10073700253F04D53F0420050114120900E4C0E059
:1007470012098A783CE6601320E70714F612058A37
:10075700802204F6D0E014C0E07F0012058AE53F4E
:100767006007120581153F800B300503120581D004
:10077700E00205DBD0E00480C51208E360A0E53F96
:1007870004120191783CEAF6E53F20050260010476
:0507970024041209001A
:10079C0074FF04C0E012098A12058AE53F200502A5
:1007AC006003120581D0E0B53FE87F4512059478CF
:1007BC003CE67F2B30E7047F2DF404C0E01205A249
:1007CC00D0E075F00A84C0F012058BD0E012058BD6
:1007DC000205DB791080027908C206C2088008D2B3
:1007EC00D5790A8004790AC2D5E53F047002F53F39
:1007FC00E4FAFDFEFF120567FC7B082001131205CD
:10080C0067FD7B1030000A120567FE120567FF7B3F
:10081C0020EC3382D592D55013C3E43000069FFFF1
:10082C00E49EFEE42001039DFDE49CFCE4CBF8C2B5
:10083C0001EC700CCFCECDCCE824F8F870F3801717
:10084C00C3EF33FFEE33FEED33FDEC33FCEB33FB48
:10085C00994002FB0FD8E9EB300105F8D0E0C44811
:10086C00B201C0E00AEC4D4E4F78207B0070C2EA1A
:10087C00B53F0040BCC0E0120902D0F0D0E020012E
:10088C0004C4C0E0C4B201C0F012058BD0F0D5F0A6
:10089C00EB0205DB12054106785307DF5806494C7D
:1008AC0006454207E34F07EB4407EB49065E430757
:1008BC00F15507224607804506EC4709B750064D0F
:1008CC002D06512E06742B06552306722009A02ADC
:1008DC00060D480000066CE53FB4FF03753F061299
:1008EC000567FC120567FD120567FE120567FF78A8
:1008FC00350201C0790AA2D5200314300509B910BC
:10090C00020404B9080104A2D520060250010420F7
:10091C0002689202B53E005034C0E07F20300319CB
:10092C007F30A20272067205500F120959C202C220
:10093C0006C205C2087F30800F300503E9C0E01203
:10094C0005A2300503D0E0F9D0E0B53ECC30051758
:10095C007F30B9100C1205A27F583004077F7880C5
:10096C0003B908031205A23002057F2D0205A27FF0
:10097C00202008F87F2B2006F322920280CF7F00E4
:10098C00B4070050052435F8E6FF22286E756C6C10
:10099C002900D2011205673001F8C201783E30D52A
:1009AC000108F602060D2D50434958120567240321
:1009BC00B405004001E49009B293120593743A1205
:0A09CC000593D203753E040207DF15
:10014700E9D2E7C933E833F892D5EDD2E7CD33ECFE
:0701570033FC5002B2D52277
:10015E00EC30E7100FBF000C0EBE00080DBD000402
:10016E000BEB6014A2D5EB13FCED92E7FD2274FFAE
:10017E00FCFDFEFF22E480F8A2D574FF13FC7D8007
:03018E00E480EF1B
:10019100F920E72824F950037907E4F42402FB1835
:1001A100DBFDE624FB5014E9600DE4F618E604F6E5
:0F01B100B40A08E4F6D9F57401F60A22C2D52281
:1001C000ED33EC3392D5FA602AB4FF33EDC2E77B0E
:1001D000FF60067A0179E5E4227A0179EE20D50400
:1001E0007A0179E9224E614E002B494E46002D4995
:1001F0004E4600E47A08F608DAFC7B00740722E831
:10020000C0E0ECC0E0EDC0E0EEC0E0EFC0E0EA75B9
:10021000F010A4CAABF075F04DA42BFBE435F0FC54
:10022000EA2410FAEB34C5FBEC34D9FCEDC2E7FF4D
:1002300075F056A4F42411C5F0F434C58FF0A42A47
:10024000E5F03BE43CF620E71412048BD0E0FFD04D
:10025000E0FED0E0FDD0E0FC1203BE8014F40412F6
:10026000048BD0E0FFD0E0FED0E0FDD0E0FC120037
:1002700003D0E0F8E6FAEDD2E7CD33EC332482FB8D
:10028000E4C3CF33CFCE33CECD33CD33DBF37B07D7
:1002900075F00A846004F6081B0AE5F0F6088FF092
:1002A000740AA4FFACF08EF0740AA42CFEACF050DB
:1002B000010C8DF0740AA42CFDE435F0F608DBDEA9
:0302C0007407229E
:1002C30002017CE86480F8E933E83360110460F0EC
:1002D300ED33EC337009E8FCE9FDEAFEEBFF2204A1
:1002E30060DED3EB9FEA9EE99DE8C2E78CF0C2F79C
:1002F30095F0400CE8CCF8E9CDF9EACEFAEBCFFB68
:1003030012014785D0F05804700320D5B3E8047078
:10031300075002B2D502018692D5EC0460F7E4CC13
:10032300C0E0C398F8603B94186008400DD0E0FB30
:1003330002015EE4FBFAC9FC8028E830E406E4C964
:10034300FBE4CAFCE830E305E4C9CACBFCE8540784
:100353006010F8C3E913F9EA13FAEB13FBEC13FC8F
:10036300D8F130F52FC3E49CFCEF9BFFEE9AFEED32
:1003730099FDD0E0FBEF4E4D4C701222DB030201DE
:1003830083EC2CFCEF33FFEE33FEED33FDED30E772
:10039300EB02015EEF2BFFEE3AFEED39FDD0E0FB01
:1003A30050130BBB0003020186ED13FDEE13FEEFAA
:0803B30013FFEC13FC02015ED4
:1003BB00020186EC5D046005E85904700302017CC0
:1003CB00120147580460F6EC4860F2EC7004FDFE35
:1003DB00FF22C860DB2481C85009C3986002500615
:1003EB000201839850CAF582E9294B4A7005AB820A
:1003FB0002017275F0007C1A7880C3EF9BEE9AEDC8
:10040B0099400DC3EF9BFFEE9AFEED99FDE842F08C
:10041B00DC23ACF0D0E0FFD0E0FED0E0FDAB8220DF
:10042B00E7101BEB60BAEC2CFCEF33FFEE33FEED69
:10043B0033FD02015EE803F830E705C0F075F0000C
:10044B00EF2FFFEE33FEED33FD40B830E7C280AA4D
:10045B003F8000004120000042C80000447A0000A9
:10046B00461C400047C35000497424004B1896802B
:10047B004CBEBC205A0E1BCA6753C21C749DC5AE22
:10048B00FB60065407601C23231204B9EB5438603D
:10049B00091204A51204B4120003ECF8EDF9EEFAFC
:1004AB00EFCB22EB1204B480F1543803241C9004DC
:1004BB005BFE93FC0EEE93FD0EEE930ECE93FF229E
:030000000209D61C
:0C09D600787FE4F6D8FD758141020A1D0F
:1004CB00BB010689828A83E0225002E722BBFE022F
:0904DB00E32289828A83E4932262
:1004E400BB010CE58229F582E5833AF583E02250CD
:1004F40006E92582F8E622BBFE06E92582F8E22217
:0D050400E58229F582E5833AF583E4932230
:10051100BB010689828A83F0225002F722BBFE01C9
:02052100F322C3
:0E052300C3E49FFFE49EFEE49DFDE49CFC22E9
:10053100FAE6FB0808E6F925F0F618E6CA3AF622CB
:10054100D083D082F8E4937012740193700DA3A349
:1005510093F8740193F5828883E47374029368605D
:06056100EFA3A3A380DF5D
:100B9A00EFB40A07740D120BA5740A309811A899BC
:100BAA00B8130CC2983098FDA899C298B811F630BB
:070BBA0099FDC299F5992293
:1009E200020A62E493A3F8E493A34003F68001F2BF
:1009F20008DFF48029E493A3F85407240CC8C33316
:100A0200C4540F4420C8834004F456800146F6DFE4
:100A1200E4800B0102040810204080900C79E47EEF
:100A2200019360BCA3FF543F30E509541FFEE493D9
:100A3200A360010ECF54C025E060A840B8E493A3A0
:100A4200FAE493A3F8E493A3C8C582C8CAC583CACB
:100A5200F0A3C8C582C8CAC583CADFE9DEE780BE83
:010C7D000076
:00000001FF
