:0A063100C0F9A4B0999282F88090FD
:05063B000311000000A6
:10060300EF1FAA0670011E4A600BE4FDEDC3947848
:0506130050EE0D80F720
:0106180022BF
:0D061900E4FF6390017E96DEFE0FBFC8F582
:0106260022B1
:1005E400E4FEEF30E704D2B58002C2B5EF25E0FFA8
:0E05F400C2B60000D2B600000EBE08E6C2B6C7
:0106020022D5
:0A062700C2B700D2B700C2B700222C
:10046700E4F510F50FF50EF50DF50CAB10AA0FA975
:100477000EA80DC000C001C002C003E4FF1204E2D1
:10048700AC07E4120318D003D002D001D000120049
:100497000A8F108E0F8D0E8C0D050CE50CC3940A78
:1004A70040C9E4FBFA79207841AF10AE0FAD0EAC2E
:1004B7000D120204E4FBFA79A078C012000AA8041E
:1004C700A905AA06AB077F007E807DAD7C4412029A
:0A04D70004E4FBFAF978C012000AF1
:0104E10022F8
:1005B000E4F511F512F513C3EF9464EE9400400CCA
:1005C000749C2FFF74FF3EFE051380EBC3EF940A6B
:1005D000EE9400400C74F62FFF74FF3EFE0512806F
:0405E000EB8F11226A
:100550007FBC7E021206031204678F0B8E0A8D0980
:100560008C08E4FFFE7DF07C41AB0BAA0AA909A828
:10057000081202A15003120619E4FFFE7D207C41FF
:10058000AB0BAA0AA909A8081200FB12034C12051A
:10059000B0E51190063193FF1205E4E51293547F04
:1005A000FF1205E4E51393FF1205E412062780A766
:1004E200E4FEFDC282C281D2800000D2810000C23D
:1004F20081D2800000D2810000C281EF24FF92806D
:100502000000D2810000C281D2800000E4FFD281CB
:100512000000C2810000EE25E0FEA280E4334EFE20
:100522000FBF08EAE4FFA280E433FCA807088002B8
:10053200C333D8FC4205D2810000C28100000FBF44
:0D05420008E4D282EEB50503FF80027F00C1
:01054F002289
:100003000203B8E86480F8E933E83360110460F070
:10001300ED33EC337009E8FCE9FDEAFEEBFF220463
:1000230060DED3EB9FEA9EE99DE8C2E78CF0C2F75E
:1000330095F0400CE8CCF8E9CDF9EACEFAEBCFFB2A
:1000430012038385D0F05804700320D5B3E80470FD
:10005300075002B2D50203C292D5EC0460F7E4CC98
:10006300C0E0C398F8603B94186008400DD0E0FBF3
:1000730002039AE4FBFAC9FC8028E830E406E4C9E9
:10008300FBE4CAFCE830E305E4C9CACBFCE8540747
:100093006010F8C3E913F9EA13FAEB13FBEC13FC52
:1000A300D8F130F52FC3E49CFCEF9BFFEE9AFEEDF5
:1000B30099FDD0E0FBEF4E4D4C701222DB0302039F
:1000C300BFEC2CFCEF33FFEE33FEED33FDED30E7F9
:1000D300EB02039AEF2BFFEE3AFEED39FDD0E0FB86
:1000E30050130BBB00030203C2ED13FDEE13FEEF2F
:0800F30013FFEC13FC02039A59
:1000FB00EC4D6011E8497017ED33EC3304600DE4FF
:10010B00FCFFFEFD22E933E8330470F80203B8125A
:10011B00038358046009E4CC24815006285009025B
:10012B0003C22840030203BFC0E0EB4A7044B9800E
:10013B0006D0E0FB0203AEEF4E701CBD8008EBFF58
:10014B00EAFEE9FD80EBE98DF0A4FEE5F00201E4A7
:10015B00E9CDF9EAFEEBFFEF89F0A4FCE5F0CE89DF
:10016B00F0A42EFFE435F0CD89F0A42DFEE435F09C
:10017B008067EF4E7005BD80D780C3EF8BF0A4ACCA
:10018B00F0EE8BF0A42CFCE435F0F8EF8AF0A42C05
:10019B00E5F038FCE433CB8DF0A42CFCE5F03BF818
:1001AB00EE8AF0A42CFCE5F038F8E433CF89F0A408
:1001BB002CFCE5F038CF3400CE89F0A42FFFE5F00E
:1001CB003EFEE433C98DF0A42EFEE5F039CD8AF066
:1001DB00A42FFFE5F03EFEE43DFD33D0E0FB5007DE
:1001EB000BBB000F0203C2EC2CFCEF33FFEE33FE14
:0601FB00ED33FD02039A42
:100201000203C2EC5D046005E8590470030203B8FF
:10021100120383580460F6EC4860F2EC7004FDFEB2
:10022100FF22C860DB2481C85009C39860025006D0
:100231000203BF9850CAF582E9294B4A7005AB8287
:100241000203AE75F0007C1A7880C3EF9BEE9AED45
:1002510099400DC3EF9BFFEE9AFEED99FDE842F048
:10026100DC23ACF0D0E0FFD0E0FED0E0FDAB82209B
:10027100E7101BEB60BAEC2CFCEF33FFEE33FEED25
:1002810033FD02039AE803F830E705C0F075F0008A
:10029100EF2FFFEE33FEED33FD40B830E7C280AA09
:1002A10074F8CC6480CCC86480C8F582046043C310
:1002B100EB9FF5F0EA9E42F0E99D42F0E89C45F0A3
:1002C10060305018E5825FFFE582F42B5582FB50C8
:1002D100210ABA001D09B90019088016E5825BFBE5
:1002E100E582F42F5582FF50090EBE00050DBD00B9
:1002F100010CC3EB9FF5F0EA9E42F0E99D42F0E864
:0D0301009C45F06007CC4820E701B3EC22DA
:10030E0075F020800E75F010800575F0087D007E6A
:10031E00007F003392D530D5031203CDEC3340105D
:10032E00EF33FFEE33FEED33FDEC33FCD5F0ED2273
:0E033E00E5F0247EA2D513CC92E7CDCEFF22AF
:10034C00EDD2E7CD33EC3392D524814006E4FFFEA9
:10035C00FDFC22FCE4CFCECDCC24E0501174FF8008
:10036C00EDC3CC13CCCD13CDCE13CECF13CF0470A5
:07037C00F030D5DE0203CDD5
:10038300E9D2E7C933E833F892D5EDD2E7CD33ECC0
:0703930033FC5002B2D52239
:10039A00EC30E7100FBF000C0EBE00080DBD0004C4
:1003AA000BEB6014A2D5EB13FCED92E7FD2274FF70
:1003BA00FCFDFEFF22E480F8A2D574FF13FC7D80C9
:0303CA00E480EFDD
:030000000203DB1D
:0C03DB00787FE4F6D8FD7581130204223F
:0E03CD00C3E49FFFE49EFEE49DFDE49CFC2241
:1003E700020550E493A3F8E493A34003F68001F2D7
:1003F70008DFF48029E493A3F85407240CC8C33317
:10040700C4540F4420C8834004F456800146F6DFE5
:10041700E4800B010204081020408090063BE47E34
:10042700019360BCA3FF543F30E509541FFEE493DA
:10043700A360010ECF54C025E060A840B8E493A3A1
:10044700FAE493A3F8E493A3C8C582C8CAC583CACC
:10045700F0A3C8C582C8CAC583CADFE9DEE780BE84
:0106400000B9
:00000001FF
