:03000000020739BB
:0C073900787FE4F6D8FD75814A02078045
:020A260080C08E
:0A097B00EF1FAC0670011E4C601562
:10098500753700753864E5381538AC37700215379A
:050995004C60E380F15D
:01099A00223A
:1009BB007580FFC2A2C2A0D2A1D2A2AF800000C29A
:0509CB00A2EF20E7EBA4
:0109D0002204
:1009FA00AE071209BBC2A2D2A0C2A18E80D2A200A7
:030A0A00C2A22263
:100A0D00AE071209BBC2A2C2A0C2A18E80D2A200A3
:030A1D00C2A22250
:0E084A008E378F388C398D3A8B3B8A3C893D36
:10085800E4FD783E7C007BFF7A0A7926FE7F02124F
:10086800042F743E2538F8E6453AFF120A0DE4FCD9
:10087800FDAB3BAA3CA93D8D828C83120455FF60D9
:100888000E1209FA0DBD00010CED64104C70E2C3A4
:10089800ED9410EC64809480500C7F201209FA0DBE
:0608A800BD00010C80E917
:0108AE002227
:1009E6007F38120A0D7F01120A0D7F06120A0D7F4B
:0409F6000C020A0DD8
:1006AB00202020202020202020202020202020203F
:1006BB0049204C6F766520596F7521002020202032
:1006CB004578616D706C652D312020200020202035
:1006DB00204578616D706C652D32202020002564DB
:1006EB002B25643D25640020202020202020202065
:1006FB00202000202020204578616D706C652D3303
:10070B0020202000202020204578616D706C652D05
:10071B0034202020002020202020202020202020DA
:0E072B002020202020001F111F111F111F0071
:050A2000030CFF06AB12
:1008AF001209E67BFF7A0679C7E4FDFCFFFE12080A
:1008BF004AE4F522F523AB0CAA0DA90E1209D1C3F8
:1008CF00E5239FEE6480F8E5226480985026AB0CF8
:1008DF00E50E2523F9E50D3522FAE4FDFC7F01FE37
:1008EF0012084A7F647E0012097B0523E52370C638
:0808FF00052280C230B0BA22CC
:10056E001209E67F0F120A0D7BFF7A0679D8E4FD99
:10057E00FCFFFE12084A1209077C007D0A12048253
:10058E008C228D231209077C007D0A120482753A93
:10059E00FF753B06753CE985223D85233E8C3F8DDC
:1005AE0040E5232DF542E5223CF5417B007A0079AA
:1005BE002612005F7FC5120A0DE4F524F525742678
:1005CE002525F8E6FF600280027F201209FA7F9649
:1005DE007E0012097B0525E52570020524C3940BC8
:1005EE00E5246480948040D67BFF7A0679F2E4FDA0
:1005FE00FC7F01FE12084A7F967E0012097B20B115
:05060E00030205842237
:1007C5001209E67F0F120A0D7BFF7A0679FEE4FD1A
:1007D500FCFFFE12084A7FC0120A0D752200752320
:1007E5002020B260C3E5239480E522648094804094
:1007F5000CE52394A0E5226480948040320525E52C
:1008050025700205246410452470187BFF7A06794B
:10081500F2FDFC7F01FE12084AE4F524F5257FC0B0
:10082500120A0DAF231209FA7F327E0012097B05E9
:1008350023E52370020522D394FFE522648094808A
:04084500409F8092BE
:01084900228C
:10061300E4F522F52378247C00FD7BFF7A0779310A
:10062300FE7F0812042F1209E67F0F120A0D7BFFCB
:100633007A07790FE4FDFCFFFE12084A7F40120A95
:100643000DE4F522F52374242523F8E6FF1209FAB5
:100653000523E52370020522C39408E522648094F0
:100663008040E37FC0120A0DE4F522F52320B3375F
:10067300E4FF1209FA7F327E0012097B0523E5238A
:1006830070020522C39410E5226480948040DE7BCF
:10069300FF7A077920E4FDFC7F01FE12084A7F966A
:0706A3007E0012097B80BC00
:0106AA00222D
:10099B0020B0051208AF80F820B10512056E80F06B
:1009AB0020B2051207C580E820B3E512061380E0DC
:1007450002099BE493A3F8E493A34003F68001F226
:1007550008DFF48029E493A3F85407240CC8C333B5
:10076500C4540F4420C8834004F456800146F6DF84
:10077500E4800B0102040810204080900A20E47EEA
:10078500019360BCA3FF543F30E509541FFEE49379
:10079500A360010ECF54C025E060A840B8E493A340
:1007A500FAE493A3F8E493A3C8C582C8CAC583CA6B
:1007B500F0A3C8C582C8CAC583CADFE9DEE780BE23
:010A250000D0
:10035F00E709F608DFFA8046E709F208DFFA803E80
:10036F0088828C83E709F0A3DFFA8032E309F6086D
:10037F00DFFA8078E309F208DFFA807088828C83D5
:10038F00E309F0A3DFFA806489828A83E0A3F60889
:10039F00DFFA805889828A83E0A3F208DFFA804C63
:1003AF0080D280FA80C680D4806980F2803380103A
:1003BF0080A680EA809A80A880DA80E280CA8033A3
:1003CF0089828A83ECFAE493A3C8C582C8CCC5831B
:1003DF00CCF0A3C8C582C8CCC583CCDFE9DEE780EB
:1003EF000D89828A83E493A3F608DFF9ECFAA9F06A
:1003FF00EDFB2289828A83ECFAE0A3C8C582C8CCC0
:10040F00C583CCF0A3C8C582C8CCC583CCDFEADED8
:10041F00E880DB89828A83E493A3F208DFF980CC3A
:10042F0088F0EF60010E4E60C388F0ED2402B40433
:10043F000050B9F582EB2402B4040050AF232345DA
:06044F0082239003AF734D
:10045500BB010CE58229F582E5833AF583E022505C
:1004650006E92582F8E622BBFE06E92582F8E222A6
:0D047500E58229F582E5833AF583E49322C0
:10048200C2D5EC30E709B2D5E4C39DFDE49CFCEE95
:1004920030E715B2D5E4C39FFFE49EFE1204E3C326
:1004A200E49DFDE49CFC80031204E330D507C3E421
:0604B2009FFFE49EFE2204
:10000300E546243AF8E60546227837300702783A7F
:10001300E475F0011205380204B82000EB7F2ED2FC
:10002300008018EF540F2490D43440D4FF30040BD5
:10003300EF24BFB41A0050032461FFE547600215A3
:1000430047054AE54A7002054930070D7837E475DC
:10005300F001120538EF0204D10209547403D207E8
:100063008003E4C207F5468B378A388939E4F547BC
:10007300F549F54AE54760077F2012003E80F57594
:1000830048FFC201C200C202C203C205C206C208BF
:1000930012000CFF700D3007057F0012004FAF4AAE
:1000A300AE4922B4255FC2D5C20412000CFF24D08E
:1000B300B40A00501A75F00A784730D50508B6FF20
:1000C3000106C6A426F620D5047002D20380D924E3
:1000D300CFB41A00EF5004C2E5D20402024FD2019A
:1000E30080C6D20080C0D20280BCD2D580BAD205ED
:1000F30080B47F2012003E2002077401B547004000
:10010300F1120003FF12003E020077D208D20680EC
:1001130095120003FB120003FA120003F94A4B7015
:100123000679207A037BFF20022EE547602A7E00B2
:100133008E8275830012045560060EEE654870F0DA
:10014300C2D5EBC0E0EAC0E0E9C0E0EE120296D00F
:10015300E0F9D0E0FAD0E0FB1204B8FF60AAEBC0EC
:10016300E0EAC0E0E9C0E012003ED0E02401F9D0AB
:10017300E03400FAD0E0FBE5480460DCD548D980E0
:10018300877BFF7A027992D202809C791080027970
:1001930008C206C2088008D2D5790A8004790AC247
:1001A300D5E548047002F548E4FAFDFEFF120003AA
:1001B300FC7B08200113120003FD7B1030000A12A0
:1001C3000003FE120003FF7B20EC3382D592D5504F
:1001D30013C3E43000069FFFE49EFEE42001039D69
:1001E300FDE49CFCE4CBF8C201EC700CCFCECDCC8B
:1001F300E824F8F870F38017C3EF33FFEE33FEED16
:1002030033FDEC33FCEB33FB994002FB0FD8E9EBF6
:10021300300105F8D0E0C448B201C0E00AEC4D4E0D
:100223004F78207B0070C2EAB5480040BCC0E012A2
:100233000298D0F0D0E0200104C4C0E0C4B201C0F1
:10024300F0120027D0F0D5F0EB0200771205480139
:100253001453018E5800E54C00E14201924F019A7C
:0F02630044019A4900FA4301A0550184460184E1
:100272004501844703405000E92D00ED2E01102B6B
:1002820000F123010E2003292A00A94800000108D9
:100292003F3F3F00790AA2D5200314300509B91067
:1002A200020404B9080104A2D52006025001042068
:1002B20002689202B547005034C0E07F2030031933
:1002C2007F30A20272067205500F1202EFC202C202
:1002D20006C205C2087F30800F300503E9C0E01274
:1002E200003E300503D0E0F9D0E0B547CC30051729
:1002F2007F30B9100C12003E7F583004077F78809F
:1003020003B9080312003E3002057F2D02003E7F32
:10031200202008F87F2B2006F322920280CF286E3D
:10032200756C6C2900D2011200033001F8C2017809
:100332004730D50108F60200A92D50434958120052
:10034200032403B405004001E490033B9312002F01
:0D035200743A12002FD20375470402018E89
:10090700AC08AD09AE0AAF0B7810EC4D4E4F700432
:100917007CA57DA5C3EC13FCED13FDEE13FEEF13D1
:10092700FF5010EC64CCFCED644CFDEE644EFEEF22
:1009370064CEFFD8DF8C088D098E0A8F0BEE547FAB
:0D094700FE228E088F0974A5F50AF50B221B
:1009D100E4FFFE1204B8600C0FEF70010E09E9701C
:0509E100F20A80EF2284
:1004B800BB010689828A83E0225002E722BBFE0242
:0904C800E32289828A83E4932275
:1004D100BB010689828A83F0225002F722BBFE010A
:0204E100F32204
:1004E300BC000BBE0029EF8DF084FFADF022E4CCFD
:1004F300F875F008EF2FFFEE33FEEC33FCEE9DECC6
:10050300984005FCEE9DFE0FD5F0E9E4CEFD22ED0B
:10051300F8F5F0EE8420D21CFEADF075F008EF2F55
:10052300FFED33FD4007985006D5F0F222C398FD46
:050533000FD5F0EA22E3
:10053800FAE6FB0808E6F925F0F618E6CA3AF622C4
:10054800D083D082F8E4937012740193700DA3A342
:1005580093F8740193F5828883E473740293686056
:06056800EFA3A3A380DF56
:10095400EFB40A07740D12095F740A309811A8994C
:10096400B8130CC2983098FDA899C298B811F63003
:0709740099FDC299F59922DB
:00000001FF
