:0205A20080C017
:10058E00110820564F4C544147453A2020302E300A
:03059E00305600D4
:070520001205027F017E00BD
:10052700EF1FAA0670011E4A600BE4FDEDC3947825
:0505370050EE0D80F7FD
:01053C00229C
:100574007580FFC2A0D2A1D2A200000000AF80C249
:09058400A2EF30E703D38001C3AC
:01058D00224B
:10050200AE0712057440FBC2A0C2A1C2A200008EB7
:0E0512008000000000D2A200000000C2A22261
:10053D00AE0712057440FBD2A0C2A1C2A28E8000EC
:0C054D00000000D2A200000000C2A222A8
:0604C8008B2D8A2E892F06
:1004CE00E4FCEF9005A2934DFF120502AB2DAA2E70
:1004DE00A92F8C827583001202686017ECC39410EA
:1004EE005011AF040C8F82758300120268FF120543
:0304FE003D80D965
:0105010022D7
:100559007F381205207F0C1205207F061205207FA7
:0B056900011205027F017E0002052741
:10045F00E4FFFEC290C291D2920000D2910000C27E
:10046F0091D2920000D2910000C291C2920000D2AC
:10047F00910000C291D2920000FDD2910000C29172
:10048F000000EF25E0FFA292E4334FFF0DBD08EA15
:10049F00E4FDA292E433FCA805088002C333D8FC24
:1004AF004206D2910000C29100000DBD08E4D29027
:0804BF00EFB5060280027F0088
:0104C7002212
:1003240012055912045F8F2AAC2AE41201B3E4FBCC
:10033400FA797A78441200037B007A8079FF784353
:1003440012010C1201E78E2B8F2C7C007D641202AB
:1003540095EF2430F513AE2BAF2C7C007D0A1202EE
:10036400957C007D0A120295ED2430F515AE2BAF75
:100374002C7C007D0A120295ED2430F5167B007A60
:10038400007908E4FDFF1204C8E52A75F010A4FF03
:10039400AEF07C007DFF1202958F297E007DFF7BED
:1003A400007A0079191202F8C374109529FFE494B5
:1003B40000FE7DDB74192529F9E4FAFB1202F87BAF
:0F03C400007A007919E4FD7F011204C8020327B3
:10000300EC4D6011E8497017ED33EC3304600DE4F7
:10001300FCFFFEFD22E933E8330470F802025312B9
:10002300021E58046009E4CC2481500628500902BA
:10003300025D28400302025AC0E0EB4A7044B980D3
:1000430006D0E0FB020249EF4E701CBD8008EBFFB7
:10005300EAFEE9FD80EBE98DF0A4FEE5F00200EC99
:10006300E9CDF9EAFEEBFFEF89F0A4FCE5F0CE89D8
:10007300F0A42EFFE435F0CD89F0A42DFEE435F095
:100083008067EF4E7005BD80D780C3EF8BF0A4ACC3
:10009300F0EE8BF0A42CFCE435F0F8EF8AF0A42CFE
:1000A300E5F038FCE433CB8DF0A42CFCE5F03BF811
:1000B300EE8AF0A42CFCE5F038F8E433CF89F0A401
:1000C3002CFCE5F038CF3400CE89F0A42FFFE5F007
:1000D3003EFEE433C98DF0A42EFEE5F039CD8AF05F
:1000E300A42FFFE5F03EFEE43DFD33D0E0FB5007D7
:1000F3000BBB000F02025DEC2CFCEF33FFEE33FE73
:06010300ED33FD020235A0
:1001090002025DEC5D046005E859047003020253C4
:1001190012021E580460F6EC4860F2EC7004FDFE11
:10012900FF22C860DB2481C85009C39860025006C9
:1001390002025A9850CAF582E9294B4A7005AB82E6
:1001490002024975F0007C1A7880C3EF9BEE9AEDA4
:1001590099400DC3EF9BFFEE9AFEED99FDE842F041
:10016900DC23ACF0D0E0FFD0E0FED0E0FDAB822094
:10017900E7101BEB60BAEC2CFCEF33FFEE33FEED1E
:1001890033FD020235E803F830E705C0F075F000E9
:10019900EF2FFFEE33FEED33FD40B830E7C280AA02
:1001A90075F020800E75F010800575F0087D007ED1
:1001B900007F003392D530D5031202EAEC334010A8
:1001C900EF33FFEE33FEED33FDEC33FCD5F0ED22DA
:0E01D900E5F0247EA2D513CC92E7CDCEFF2216
:1001E700EDD2E7CD33EC3392D524814006E4FFFE10
:1001F700FDFC22FCE4CFCECDCC24E0501174FF806F
:10020700EDC3CC13CCCD13CDCE13CECF13CF04700B
:07021700F030D5DE0202EA1F
:10021E00E9D2E7C933E833F892D5EDD2E7CD33EC26
:07022E0033FC5002B2D5229F
:10023500EC30E7100FBF000C0EBE00080DBD00042A
:100245000BEB6014A2D5EB13FCED92E7FD2274FFD6
:10025500FCFDFEFF22E480F8A2D574FF13FC7D802F
:03026500E480EF43
:030000000203D325
:0C03D300787FE4F6D8FD75812F02041A33
:10026800BB010CE58229F582E5833AF583E022504B
:1002780006E92582F8E622BBFE06E92582F8E22295
:0D028800E58229F582E5833AF583E49322AF
:10029500BC000BBE0029EF8DF084FFADF022E4CC4D
:1002A500F875F008EF2FFFEE33FEEC33FCEE9DEC16
:1002B500984005FCEE9DFE0FD5F0E9E4CEFD22ED5C
:1002C500F8F5F0EE8420D21CFEADF075F008EF2FA6
:1002D500FFED33FD4007985006D5F0F222C398FD97
:0502E5000FD5F0EA2234
:0E02EA00C3E49FFFE49EFEE49DFDE49CFC2225
:1002F800EF4E6012EF60010EEDBB010B89828A831D
:10030800F0A3DFFCDEFA2289F05007F709DFFCA929
:0C031800F022BBFEFCF309DFFCA9F02280
:1003DF00020324E493A3F8E493A34003F68001F20D
:1003EF0008DFF48029E493A3F85407240CC8C3331F
:1003FF00C4540F4420C8834004F456800146F6DFEE
:10040F00E4800B010204081020408090058EE47EEA
:10041F00019360BCA3FF543F30E509541FFEE493E2
:10042F00A360010ECF54C025E060A840B8E493A3A9
:10043F00FAE493A3F8E493A3C8C582C8CAC583CAD4
:10044F00F0A3C8C582C8CAC583CADFE9DEE780BE8C
:0105A1000059
:00000001FF
