:03000000020FD913
:0C0FD900787FE4F6D8FD758149020F40D6
:020FE50080C0CA
:050F7300120FC67F0112
:100F7800AD071FED600BE4FEEEC3947850F20E80CF
:010F8800F771
:010F89002245
:100F9F007580FFC2A2C2A0D2A1D2A2AF80C2A2EF1F
:030FAF0020E7ED4B
:010FB200221C
:100FB300AE07120F9FC2A2D2A0C2A18E80D2A200FE
:030FC300C2A222A5
:100FC600AE07120F9FC2A2C2A0C2A18E80D2A200FB
:030FD600C2A22292
:100F5A007F38120F737F01120F737F06120F737F90
:090F6A000C120FC67F01020F7882
:060EDB008B368A378938CE
:100EE100E4FCEF900FE5934DFF120FC6AB36AA3726
:100EF100A9388C82758300120B5CFF600CECC394E3
:100F0100105006120FB30C80E3ECC3941050087F0D
:070F110020120FB30C80F267
:010F180022B6
:100D23004C4344313630322044454D4F2D31004C35
:100D33004344313630322044454D4F2D320020207C
:100D430020202020202020202020202020200025BB
:100D530032642B2532643D253264004C43443136E2
:100D630030322044656D6F2D330020202020202059
:100D730020202020202020202020796F75206172E0
:100D83006520676F696E6720746F207370656E648A
:100D9300206576656E206D6F72652074696D6520C0
:100DA300776F726B696E67206F6E2074686520734E
:090DB3006368656D6174696300F9
:100E36007F0C120FC67BFF7A0D7923E4FDFF120E9D
:100E4600DBE4F522F5237BFF7A0D796D120F8AD349
:100E5600E5239FE5229E5026746D2523F9E4340D83
:100E6600FA7BFFE4FD7F01120EDB7F327E00120F5C
:100E76007820B0130523E52370CC052280C87FE8CF
:070E86007E03120F7880BA11
:010E8D002242
:100C75007F0C120FC67BFF7A0D7932E4FDFF120E51
:100C8500DB7BFF7A0D7941E4FD7F01120EDB7F0FDF
:100C9500120FC6AF8C7E00120ED030B103020D22AA
:100CA500120E8E7C007D0A120B898C238D24120E68
:100CB5008E7C007D0A120B897539FF753A0D753BDF
:100CC5005285233C85243D8C3E8D3FE5242DF54101
:100CD500E5233CF5407B007A00792512085C7FC04E
:100CE500120FC6E4F52274252522F8E6FF6002807E
:100CF500027F20120FB37F647E00120F780522E574
:100D050022C3941040E07FC87E00120F787BFF7AE3
:0D0D15000D7941E4FD7F01120EDB020C9F01
:010D220022AE
:100DBC00E4F5237F0C120FC67BFF7A0D795EE4FD00
:100DCC00FF120EDB7BFF7A0D7941E4FD7F01120EE1
:100DDC00DB7FC0120FC6752220E522C3948040072A
:100DEC00E522D3949F40330523E523540F701C7FD9
:100DFC00F47E01120F787BFF7A0D7941E4FD7F01BF
:100E0C00120EDB7FC0120FC6E4F523AF22120FB314
:100E1C007F147E00120F7820B20F0522E52270B9E4
:090E2C007FF47E01120F7880A80A
:010E3500229A
:100F400075B0FF120F5A20B003120E3620B10312F3
:0A0F50000C7520B2F1120DBC80EC0C
:100B5C00BB010CE58229F582E5833AF583E022504E
:100B6C0006E92582F8E622BBFE06E92582F8E22298
:0D0B7C00E58229F582E5833AF583E49322B2
:100B8900C2D5EC30E709B2D5E4C39DFDE49CFCEE87
:100B990030E715B2D5E4C39FFFE49EFE120BEAC30A
:100BA900E49DFDE49CFC8003120BEA30D507C3E405
:060BB9009FFFE49EFE22F6
:10080000E5452439F8E6054522783630070278397F
:10081000E475F001120C3F020BBF2000EB7F2ED2DB
:10082000008018EF540F2490D43440D4FF30040BD0
:10083000EF24BFB41A0050032461FFE5466002159F
:10084000460549E5497002054830070D7836E475DC
:10085000F001120C3FEF020BD8020F197403D207FC
:100860008003E4C207F5458B368A378938E4F546BC
:10087000F548F549E54660077F2012083B80F5758D
:1008800047FFC201C200C202C203C205C206C208BB
:10089000120809FF700D3007057F0012084CAF49A0
:1008A000AE4822B4255FC2D5C204120809FF24D085
:1008B000B40A00501A75F00A784630D50508B6FF1C
:1008C0000106C6A426F620D5047002D20380D924DE
:1008D000CFB41A00EF5004C2E5D204020A4CD20190
:1008E00080C6D20080C0D20280BCD2D580BAD205E8
:1008F00080B47F2012083B2002077401B5460040F7
:10090000F1120800FF12083B020874D208D20680D8
:1009100095120800FB120800FA120800F94A4B7001
:1009200006791D7A0B7BFF20022EE546602A7E00A9
:100930008E82758300120B5C60060EEE654770F0C8
:10094000C2D5EBC0E0EAC0E0E9C0E0EE120A93D005
:10095000E0F9D0E0FAD0E0FB120BBFFF60AAEBC0D9
:10096000E0EAC0E0E9C0E012083BD0E02401F9D0A1
:10097000E03400FAD0E0FBE5470460DCD547D980DD
:10098000877BFF7A0A798FD202809C791080027966
:1009900008C206C2088008D2D5790A8004790AC242
:1009A000D5E547047002F547E4FAFDFEFF120800A2
:1009B000FC7B08200113120800FD7B1030000A1296
:1009C0000800FE120800FF7B20EC3382D592D55040
:1009D00013C3E43000069FFFE49EFEE42001039D64
:1009E000FDE49CFCE4CBF8C201EC700CCFCECDCC86
:1009F000E824F8F870F38017C3EF33FFEE33FEED11
:100A000033FDEC33FCEB33FB994002FB0FD8E9EBF1
:100A1000300105F8D0E0C448B201C0E00AEC4D4E08
:100A20004F78207B0070C2EAB5470040BCC0E0129E
:100A30000A95D0F0D0E0200104C4C0E0C4B201C0E7
:100A4000F0120824D0F0D5F0EB020874120C4F0914
:100A50001153098B5808E24C08DE42098F4F099761
:0F0A60004409974908F743099D550981460981C3
:100A6F00450981470B3D5008E62D08EA2E090D2B4D
:100A7F0008EE23090B200B262A08A64800000905BB
:100A8F003F3F3F00790AA2D5200314300509B91062
:100A9F00020404B9080104A2D52006025001042063
:100AAF0002689202B546005034C0E07F203003192F
:100ABF007F30A20272067205500F120AECC202C2F8
:100ACF0006C205C2087F30800F300503E9C0E0126F
:100ADF00083B300503D0E0F9D0E0B546CC30051720
:100AEF007F30B9100C12083B7F583004077F788095
:100AFF0003B9080312083B3002057F2D02083B7F24
:100B0F00202008F87F2B2006F322920280CF286E38
:100B1F00756C6C2900D2011208003001F8C20178FF
:100B2F004630D50108F60208A62D50434958120841
:100B3F00002403B405004001E4900B389312082CF5
:0D0B4F00743A12082CD20375460402098B7B
:100E8E00AC08AD09AE0AAF0B7810EC4D4E4F7004A6
:100E9E007CA57DA5C3EC13FCED13FDEE13FEEF1345
:100EAE00FF5010EC64CCFCED644CFDEE644EFEEF96
:100EBE0064CEFFD8DF8C088D098E0A8F0BEE547F1F
:0D0ECE00FE228E088F0974A5F50AF50B228F
:100F8A00E4FFFE120BBF600C0FEF70010E09E9704F
:050F9A00F20A80EF22C5
:100BBF00BB010689828A83E0225002E722BBFE0234
:090BCF00E32289828A83E4932267
:100BD800BB010689828A83F0225002F722BBFE01FC
:020BE800F322F6
:100BEA00BC000BBE0029EF8DF084FFADF022E4CCEF
:100BFA00F875F008EF2FFFEE33FEEC33FCEE9DECB8
:100C0A00984005FCEE9DFE0FD5F0E9E4CEFD22EDFD
:100C1A00F8F5F0EE8420D21CFEADF075F008EF2F47
:100C2A00FFED33FD4007985006D5F0F222C398FD38
:050C3A000FD5F0EA22D5
:100C3F00FAE6FB0808E6F925F0F618E6CA3AF622B6
:100C4F00D083D082F8E4937012740193700DA3A334
:100C5F0093F8740193F5828883E473740293686048
:060C6F00EFA3A3A380DF48
:100F1900EFB40A07740D120F24740A309811A899B6
:100F2900B8130CC2983098FDA899C298B811F63038
:070F390099FDC299F5992210
:00000001FF
