:030000000204CE29
:0C04CE00787FE4F6D8FD75813402051536
:0206BA0080C0FE
:100698001008564F4C544147453A2020302E3030F0
:0206A8005600FA
:07061B0012066E7F017E0054
:10062200EF1FAA0670011E4A600BE4FDEDC3947829
:0506320050EE0D80F701
:0106370022A0
:0C06AB001206B7D2911206B7C291D2928B
:0306B7000000221E
:100638007580FFC2A2C2A0D2A1D2A21206B7AF8013
:0A064800C2A2EF30E703D38001C324
:010652002285
:10066E00AE0712063840FBC2A2C2A0C2A18E80D233
:05067E00A200C2A2224F
:10068300AE0712063840FBC2A2D2A0C2A18E80D20E
:05069300A200C2A2223A
:100653007F3812061B7F0112061B7F0612061B7FC3
:0B0663000C12066E7F017E00020622D2
:0E055A008E2C8F2D8C2E8D2F8B308A31893276
:10056800E4FD78337C007BFF7A0679BAFE7F0212BD
:1005780003387433252DF8E6452FFF12066EE4FC88
:10058800FDAB30AA31A9328D828C8312035EFF60E5
:100598000E1206830DBD00010CED64104C70E2C311
:1005A800ED9410EC64809480500C7F201206830D2B
:0605B800BD00010C80E90A
:0105BE00221A
:1005BF00E4FFFEC290C291D2921206ABD291120604
:1005CF00B7C291C2921206ABFDD2911206B7C29179
:1005DF001206B7A292E433FCEF25E04CFF0DBD08E5
:1005EF00E8E4FDA292E433FCA805088002C333D8E7
:1005FF00FC4206D2911206B7C2911206B70DBD0882
:0B060F00E2D290EFB5060280027F00EF
:01061A0022BD
:10041A00E4F528F529F52AF52B1206531205BF8FA4
:10042A0029AC29E41201B3E4FBFA79FA7843120001
:10043A0003E4FBFA7980784312010C1201E78E2A51
:10044A008F2B7C007D6412038BEF2430F512AE2AC9
:10045A00AF2B7C007D0A12038B7C007D0A12038B72
:10046A00ED2430F514AE2AAF2B7C007D0A12038BE3
:10047A00ED2430F5157B007A007908E4FDFCFFFED7
:10048A0012055AE52975F010A4E5F0F528FF7E005B
:10049A007DFF7B007A0079181203EEC37410952849
:1004AA00FFE49400FE7DDB74182528F9E4FAFB12B8
:1004BA0003EE7B007A007918E4FDFC7F01FE120549
:0404CA005A020426A8
:10000300EC4D6011E8497017ED33EC3304600DE4F7
:10001300FCFFFEFD22E933E8330470F802025312B9
:10002300021E58046009E4CC2481500628500902BA
:10003300025D28400302025AC0E0EB4A7044B980D3
:1000430006D0E0FB020249EF4E701CBD8008EBFFB7
:10005300EAFEE9FD80EBE98DF0A4FEE5F00200EC99
:10006300E9CDF9EAFEEBFFEF89F0A4FCE5F0CE89D8
:10007300F0A42EFFE435F0CD89F0A42DFEE435F095
:100083008067EF4E7005BD80D780C3EF8BF0A4ACC3
:10009300F0EE8BF0A42CFCE435F0F8EF8AF0A42CFE
:1000A300E5F038FCE433CB8DF0A42CFCE5F03BF811
:1000B300EE8AF0A42CFCE5F038F8E433CF89F0A401
:1000C3002CFCE5F038CF3400CE89F0A42FFFE5F007
:1000D3003EFEE433C98DF0A42EFEE5F039CD8AF05F
:1000E300A42FFFE5F03EFEE43DFD33D0E0FB5007D7
:1000F3000BBB000F02025DEC2CFCEF33FFEE33FE73
:06010300ED33FD020235A0
:1001090002025DEC5D046005E859047003020253C4
:1001190012021E580460F6EC4860F2EC7004FDFE11
:10012900FF22C860DB2481C85009C39860025006C9
:1001390002025A9850CAF582E9294B4A7005AB82E6
:1001490002024975F0007C1A7880C3EF9BEE9AEDA4
:1001590099400DC3EF9BFFEE9AFEED99FDE842F041
:10016900DC23ACF0D0E0FFD0E0FED0E0FDAB822094
:10017900E7101BEB60BAEC2CFCEF33FFEE33FEED1E
:1001890033FD020235E803F830E705C0F075F000E9
:10019900EF2FFFEE33FEED33FD40B830E7C280AA02
:1001A90075F020800E75F010800575F0087D007ED1
:1001B900007F003392D530D5031203E0EC334010B1
:1001C900EF33FFEE33FEED33FDEC33FCD5F0ED22DA
:0E01D900E5F0247EA2D513CC92E7CDCEFF2216
:1001E700EDD2E7CD33EC3392D524814006E4FFFE10
:1001F700FDFC22FCE4CFCECDCC24E0501174FF806F
:10020700EDC3CC13CCCD13CDCE13CECF13CF04700B
:07021700F030D5DE0203E028
:10021E00E9D2E7C933E833F892D5EDD2E7CD33EC26
:07022E0033FC5002B2D5229F
:10023500EC30E7100FBF000C0EBE00080DBD00042A
:100245000BEB6014A2D5EB13FCED92E7FD2274FFD6
:10025500FCFDFEFF22E480F8A2D574FF13FC7D802F
:03026500E480EF43
:1004DA0002041AE493A3F8E493A34003F68001F21A
:1004EA0008DFF48029E493A3F85407240CC8C33323
:1004FA00C4540F4420C8834004F456800146F6DFF2
:10050A00E4800B0102040810204080900698E47EE3
:10051A00019360BCA3FF543F30E509541FFEE493E6
:10052A00A360010ECF54C025E060A840B8E493A3AD
:10053A00FAE493A3F8E493A3C8C582C8CAC583CAD8
:10054A00F0A3C8C582C8CAC583CADFE9DEE780BE90
:0106AA00004F
:10026800E709F608DFFA8046E709F208DFFA803E78
:1002780088828C83E709F0A3DFFA8032E309F60865
:10028800DFFA8078E309F208DFFA807088828C83CD
:10029800E309F0A3DFFA806489828A83E0A3F60881
:1002A800DFFA805889828A83E0A3F208DFFA804C5B
:1002B80080D280FA80C680D4806980F28033801032
:1002C80080A680EA809A80A880DA80E280CA80339B
:1002D80089828A83ECFAE493A3C8C582C8CCC58313
:1002E800CCF0A3C8C582C8CCC583CCDFE9DEE780E3
:1002F8000D89828A83E493A3F608DFF9ECFAA9F062
:10030800EDFB2289828A83ECFAE0A3C8C582C8CCB7
:10031800C583CCF0A3C8C582C8CCC583CCDFEADED0
:10032800E880DB89828A83E493A3F208DFF980CC32
:1003380088F0EF60010E4E60C388F0ED2402B4042B
:100348000050B9F582EB2402B4040050AF232345D2
:0603580082239002B8733D
:10035E00BB010CE58229F582E5833AF583E0225054
:10036E0006E92582F8E622BBFE06E92582F8E2229E
:0D037E00E58229F582E5833AF583E49322B8
:10038B00BC000BBE0029EF8DF084FFADF022E4CC56
:10039B00F875F008EF2FFFEE33FEEC33FCEE9DEC1F
:1003AB00984005FCEE9DFE0FD5F0E9E4CEFD22ED65
:1003BB00F8F5F0EE8420D21CFEADF075F008EF2FAF
:1003CB00FFED33FD4007985006D5F0F222C398FDA0
:0503DB000FD5F0EA223D
:0E03E000C3E49FFFE49EFEE49DFDE49CFC222E
:1003EE00EF4E6012EF60010EEDBB010B89828A8326
:1003FE00F0A3DFFCDEFA2289F05007F709DFFCA933
:0C040E00F022BBFEFCF309DFFCA9F02289
:00000001FF
