:060FFD00D2B37F087E0064
:0A100300EF1F70011E144E70F7225B
:100FAE00120FFDC2B37F5A7E00121003120FFDA264
:0F0FBE00B3E433FD7F647E00121003D2B3AF059E
:010FCD002201
:100F2100E4FDD2B300FCC2B3EDC313FDD2B30000A4
:100F310030B3034305807F1E7E00121003D2B30C31
:050F4100BC08E3AF0550
:010F46002288
:020FCE00AD076D
:100FD000E4FBC2B3ED1392B37F057E00121003D27F
:090FE000B3EDC313FD0BBB08E9DE
:010FE90022E5
:100ED300E4FEEFA806088002C313D8FC653E30E0A9
:100EE3000BE53EC313F53E633E8C8006E53EC3131C
:060EF300F53E0EBE08DC16
:010EF90022D6
:100E6200E4FB120FAEBF01037F00227FCC120FCE34
:100E72007F44120FCE120FAE7FCC120FCE7FBE1266
:100E82000FCEE4F53EFB120F21743F2BF8A6077438
:100E92003F2BF8E6FF120ED30BBB09EAE53E7004C6
:060EA2007F0180027F00C9
:010EA8002227
:0200030080C0BB
:0C0F6B00C2A1C2A28C80D2A27F017E0035
:100F7700EF1FAA0670011E4A600BE4FDEDC39478CB
:050F870050EE0D80F7A3
:010F8C002242
:100FEA007580FFC2A0D2A1120F71AF80C2A2EF20FA
:020FFA00E7EE20
:010FFC0022D2
:0D101B00AC07120FEAC2A0120F6BC2A22296
:0D102800AC07120FEAD2A0120F6BC2A22279
:100F47007F3812101B120F737F0112101B120F73C1
:100F57007F0612101B120F737F0C12101B7F017E6E
:040F670000020F77FE
:100DDF00154815481548A848A60308A60208A601F5
:100DEF001548A848A6051548A848A6071548154848
:020DFF00154895
:100E0100A848E4F6A94809A801FCFD7BFF7A00790E
:100E110003FE7F0212064AE5482403F8E6A84808C3
:100E210028F9E5482404F8E746FF12101BA848E416
:100E3100F6A848E6FFC394105020E5482405F8863B
:100E41000308E6FA08E6F98F82758300120689FF26
:0A0E51006008121028A8480680D798
:070E5B00E5482408F54822D8
:100F8D0054454D503A202025352E316620DF430043
:100F9D002043757272656E742054656D70203A2011
:010FAD000043
:0D100D000209FFFF040B420C000001080067
:03000B00020B7B6A
:100B7B00C0E0C0F0C083C082C0D075D000C000C040
:0D0B8B0001C002C003C004C005C006C007C1
:100B9800758CFE758A340508E5086464705BF50891
:100BA800120E62EF6053E53FB50906E540650A603D
:100BB80048853F0985400AE540AD3FFCEC12027EBE
:100BC800E4FBFA7980783D1201068F0E8E0D8D0CAC
:100BD8008C0B7525FF75260F75278D8F2B8E2A8D0B
:100BE800298C287B007A00790F1207687B007A002D
:100BF800790F7D007F01120DDFE4FFFE7D967C42B8
:100C0800AB0EAA0DA90CA80B12020C400C750E0015
:100C1800750D00750C96750B42E4FFFEFDFCAB0EDE
:100C2800AA0DA90CA80B12020C6002500C750E003C
:100C3800750D00750C00750B00E4FFFE7D347C42D9
:100C4800AB0EAA0DA90CA80B12020C4066D290C2DA
:100C580091E4FFFE7D347C42AB0EAA0DA90CA80BD3
:100C680012020C7004C2928016E4FFFE7D967C424C
:100C7800AB0EAA0DA90CA80B12020C7006D2927F1B
:100C88001E807AD292E4FFFE7D347CC2AB0EAA0DA0
:100C9800A90CA80B1200151202B7120F77C292AB5B
:100CA8000EAA0DA90CA80BE4FFFE7D967C4212004B
:100CB800118071E4FFFE7D207C41AB0EAA0DA90CCA
:100CC800A80B12020C60025063C290D291E4FFFE9E
:100CD8007D207C41AB0EAA0DA90CA80B12020C704A
:100CE80006C2927F0A8016E4FFFEFDFCAB0EAA0D39
:100CF800A90CA80B12020C7007D2927F0AFE80275B
:100D0800D292AB0EAA0DA90CA80BE4FFFE7D207CA5
:100D1800411200111202B7120F77C292AF0EAE0D38
:100D2800AD0CAC0B1202B7120F778004C290C291BF
:100D3800D007D006D005D004D003D002D001D0000F
:0B0D4800D0D0D082D083D0F0D0E032B9
:100EA900120F477BFF7A0F799D7D007F00120DDFBE
:100EB900120E627F207E03120F77758901758CFEF1
:0A0EC900758A3475A882D28C80FE71
:10000E00020323E86480F8E933E83360110460F0FA
:10001E00ED33EC337009E8FCE9FDEAFEEBFF220458
:10002E0060DED3EB9FEA9EE99DE8C2E78CF0C2F753
:10003E0095F0400CE8CCF8E9CDF9EACEFAEBCFFB1F
:10004E001202EE85D0F05804700320D5B3E8047088
:10005E00075002B2D502032D92D5EC0460F7E4CC22
:10006E00C0E0C398F8603B94186008400DD0E0FBE8
:10007E00020305E4FBFAC9FC8028E830E406E4C973
:10008E00FBE4CAFCE830E305E4C9CACBFCE854073C
:10009E006010F8C3E913F9EA13FAEB13FBEC13FC47
:1000AE00D8F130F52FC3E49CFCEF9BFFEE9AFEEDEA
:1000BE0099FDD0E0FBEF4E4D4C701222DB03020394
:1000CE002AEC2CFCEF33FFEE33FEED33FDED30E783
:1000DE00EB020305EF2BFFEE3AFEED39FDD0E0FB10
:1000EE0050130BBB000302032DED13FDEE13FEEFB9
:0800FE0013FFEC13FC020305E3
:10010600EC4D6011E8497017ED33EC3304600DE4F3
:10011600FCFFFEFD22E933E8330470F802032312E4
:1001260002EE58046009E4CC2481500628500902E6
:10013600032D28400302032AC0E0EB4A7044B9802D
:1001460006D0E0FB020319EF4E701CBD8008EBFFE2
:10015600EAFEE9FD80EBE98DF0A4FEE5F00201EF91
:10016600E9CDF9EAFEEBFFEF89F0A4FCE5F0CE89D4
:10017600F0A42EFFE435F0CD89F0A42DFEE435F091
:100186008067EF4E7005BD80D780C3EF8BF0A4ACBF
:10019600F0EE8BF0A42CFCE435F0F8EF8AF0A42CFA
:1001A600E5F038FCE433CB8DF0A42CFCE5F03BF80D
:1001B600EE8AF0A42CFCE5F038F8E433CF89F0A4FD
:1001C6002CFCE5F038CF3400CE89F0A42FFFE5F003
:1001D6003EFEE433C98DF0A42EFEE5F039CD8AF05B
:1001E600A42FFFE5F03EFEE43DFD33D0E0FB5007D3
:1001F6000BBB000F02032DEC2CFCEF33FFEE33FE9E
:06020600ED33FD020305CB
:10020C0074F8CC6480CCC86480C8F582046043C3A5
:10021C00EB9FF5F0EA9E42F0E99D42F0E89C45F038
:10022C0060305018E5825FFFE582F42B5582FB505D
:10023C00210ABA001D09B90019088016E5825BFB7A
:10024C00E582F42F5582FF50090EBE00050DBD004E
:10025C00010CC3EB9FF5F0EA9E42F0E99D42F0E8F9
:0D026C009C45F06007CC4820E701B3EC2270
:1002790075F020800E75F010800575F0087D007E00
:10028900007F003392D530D5031206C8EC334010F5
:10029900EF33FFEE33FEED33FDEC33FCD5F0ED2209
:0E02A900E5F0247EA2D513CC92E7CDCEFF2245
:1002B700EDD2E7CD33EC3392D524814006E4FFFE3F
:1002C700FDFC22FCE4CFCECDCC24E0501174FF809E
:1002D700EDC3CC13CCCD13CDCE13CECF13CF04703B
:0702E700F030D5DE0206C86D
:10070C00E5392425F8E605392278223007027825C8
:10071C00E475F0011206D60206702000EB7F2ED293
:10072C00008018EF540F2490D43440D4FF30040BC5
:10073C00EF24BFB41A0050032461FFE53A600215A0
:10074C003A053DE53D7002053C30070D7822E47515
:10075C00F0011206D6EF0206B6020EFA7403D207A7
:10076C008003E4C207F5398B228A238924E4F53A05
:10077C00F53CF53DE53A60077F2012074780F5759B
:10078C003BFFC201C200C202C203C205C206C208BC
:10079C00120715FF700D3007057F00120758AF3D8B
:1007AC00AE3C22B4255FC2D5C204120715FF24D07B
:1007BC00B40A00501A75F00A783A30D50508B6FF1D
:1007CC000106C6A426F620D5047002D20380D924D3
:1007DC00CFB41A00EF5004C2E5D204020A45D2018C
:1007EC0080C6D20080C0D20280BCD2D580BAD205DD
:1007FC0080B47F201207472002077401B53A0040ED
:10080C00F112070CFF120747020780D208D20680AC
:10081C009512070CFB12070CFA12070CF94A4B70D5
:10082C0006793C7A0B7BFF20022EE53A602A7E008B
:10083C008E8275830012068960060EEE653B70F0A1
:10084C00C2D5EBC0E0EAC0E0E9C0E0EE120AA5D0E8
:10085C00E0F9D0E0FAD0E0FB120670FF60AAEBC022
:10086C00E0EAC0E0E9C0E0120747D0E02401F9D08B
:10087C00E03400FAD0E0FBE53B0460DCD53BD980EA
:10088C0087D20280A2120A8860F7E53B700104123D
:10089C000338A93B600DE53B600914F53B120B2FA7
:1008AC00EF60F3EA30E702F404C3995077EAF425D9
:1008BC003B0430E701E404F53B800D120A8860C16B
:1008CC00EA053B253B120338EA7838F630E701E4B9
:1008DC00253B04D53B0420050114120AA5E4C0E015
:1008EC00120B2F7838E6601320E70714F612072F47
:1008FC00802204F6D0E014C0E07F0012072FE53B05
:10090C006007120726153B800B300503120726D013
:10091C00E0020780D0E00480C5120A8860A0E53BA5
:10092C00041203387838EAF6E53B2005026001042E
:05093C002404120AA5CD
:1009410074FF04C0E0120B2F12072FE53B200502B4
:100951006003120726D0E0B53BE87F4512073978DE
:1009610038E67F2B30E7047F2DF404C0E0120747FF
:10097100D0E075F00A84C0F0120730D0E0120730E1
:10098100020780791080027908C206C2088008D265
:10099100D5790A8004790AC2D5E53B047002F53B9A
:1009A100E4FAFDFEFF12070CFC7B0820011312077D
:1009B1000CFD7B1030000A12070CFE12070CFF7BA6
:1009C10020EC3382D592D55013C3E43000069FFF4B
:1009D100E49EFEE42001039DFDE49CFCE4CBF8C20F
:1009E10001EC700CCFCECDCCE824F8F870F3801771
:1009F100C3EF33FFEE33FEED33FDEC33FCEB33FBA2
:100A0100994002FB0FD8E9EB300105F8D0E0C4486A
:100A1100B201C0E00AEC4D4E4F78207B0070C2EA73
:100A2100B53B0040BCC0E0120AA7D0F0D0E02001E5
:100A310004C4C0E0C4B201C0F0120730D0F0D5F058
:100A4100EB0207801206E6081D5309845807EE4C95
:100A510007EA4209884F099044099049080343096C
:100A6100965508C7460925450891470B5C5007F282
:100A71002D07F62E08192B07FA230817200B452AF4
:100A810007B24800000811E53BB4FF03753B0612AD
:100A9100070CFC12070CFD12070CFE12070CFF7865
:100AA10031020367790AA2D5200314300509B91070
:100AB100020404B9080104A2D52006025001042051
:100AC10002689202B53A005034C0E07F2030031929
:100AD1007F30A20272067205500F120AFEC202C2D4
:100AE10006C205C2087F30800F300503E9C0E0125D
:100AF1000747300503D0E0F9D0E0B53ACC3005170F
:100B01007F30B9100C1207477F583004077F788077
:100B110003B908031207473002057F2D0207477FFB
:100B2100202008F87F2B2006F322920280CF7F003D
:100B3100B4070050052431F8E6FF22286E756C6C6D
:100B41002900D20112070C3001F8C201783A30D5E0
:100B51000108F60207B22D5043495812070C24032D
:100B6100B405004001E4900B5793120738743A1210
:0A0B71000738D203753A0402098424
:1002EE00E9D2E7C933E833F892D5EDD2E7CD33EC56
:0702FE0033FC5002B2D522CF
:10030500EC30E7100FBF000C0EBE00080DBD000459
:100315000BEB6014A2D5EB13FCED92E7FD2274FF05
:10032500FCFDFEFF22E480F8A2D574FF13FC7D805E
:03033500E480EF72
:10033800F920E72824F950037907E4F42402FB188C
:10034800DBFDE624FB5014E9600DE4F618E604F63C
:0F035800B40A08E4F6D9F57401F60A22C2D522D8
:10036700ED33EC3392D5FA602AB4FF33EDC2E77B65
:10037700FF60067A03798CE4227A03799520D50405
:100387007A037990224E614E002B494E46002D4943
:100397004E4600E47A08F608DAFC7B00740722E888
:1003A700C0E0ECC0E0EDC0E0EEC0E0EFC0E0EA7511
:1003B700F010A4CAABF075F04DA42BFBE435F0FCAC
:1003C700EA2410FAEB34C5FBEC34D9FCEDC2E7FFA5
:1003D70075F056A4F42411C5F0F434C58FF0A42A9F
:1003E700E5F03BE43CF620E71412053AD0E0FFD0F5
:1003F700E0FED0E0FDD0E0FC12046D8014F404129E
:10040700053AD0E0FFD0E0FED0E0FDD0E0FC1201DD
:1004170006D0E0F8E6FAEDD2E7CD33EC332482FBE1
:10042700E4C3CF33CFCE33CECD33CD33DBF37B072E
:1004370075F00A846004F6081B0AE5F0F6088FF0E9
:10044700740AA4FFACF08EF0740AA42CFEACF05032
:10045700010C8DF0740AA42CFDE435F0F608DBDE00
:03046700740722F5
:10046A0002032DEC5D046005E859047003020323BE
:10047A001202EE580460F6EC4860F2EC7004FDFEDD
:10048A00FF22C860DB2481C85009C3986002500665
:10049A0002032A9850CAF582E9294B4A7005AB82B1
:1004AA0002031975F0007C1A7880C3EF9BEE9AED6F
:1004BA0099400DC3EF9BFFEE9AFEED99FDE842F0DD
:1004CA00DC23ACF0D0E0FFD0E0FED0E0FDAB822030
:1004DA00E7101BEB60BAEC2CFCEF33FFEE33FEEDBA
:1004EA0033FD020305E803F830E705C0F075F000B4
:1004FA00EF2FFFEE33FEED33FD40B830E7C280AA9E
:10050A003F8000004120000042C80000447A0000F9
:10051A00461C400047C35000497424004B1896807B
:10052A004CBEBC205A0E1BCA6753C21C749DC5AE72
:10053A00FB60065407601C2323120568EB543860DD
:10054A0009120554120563120106ECF8EDF9EEFAE8
:10055A00EFCB22EB12056380F1543803241C90057B
:10056A000AFE93FC0EEE93FD0EEE930ECE93FF223F
:03000000020D539B
:0C0D5300787FE4F6D8FD758148020D9A07
:10057A00E709F608DFFA8046E709F208DFFA803E63
:10058A0088828C83E709F0A3DFFA8032E309F60850
:10059A00DFFA8078E309F208DFFA807088828C83B8
:1005AA00E309F0A3DFFA806489828A83E0A3F6086C
:1005BA00DFFA805889828A83E0A3F208DFFA804C46
:1005CA0080D280FA80C680D4806980F2803380101D
:1005DA0080A680EA809A80A880DA80E280CA803386
:1005EA0089828A83ECFAE493A3C8C582C8CCC583FE
:1005FA00CCF0A3C8C582C8CCC583CCDFE9DEE780CE
:10060A000D89828A83E493A3F608DFF9ECFAA9F04C
:10061A00EDFB2289828A83ECFAE0A3C8C582C8CCA2
:10062A00C583CCF0A3C8C582C8CCC583CCDFEADEBB
:10063A00E880DB89828A83E493A3F208DFF980CC1D
:10064A0088F0EF60010E4E60C388F0ED2402B40416
:10065A000050B9F582EB2402B4040050AF232345BD
:06066A0082239005CA7313
:10067000BB010689828A83E0225002E722BBFE0288
:09068000E32289828A83E49322BB
:10068900BB010CE58229F582E5833AF583E0225026
:1006990006E92582F8E622BBFE06E92582F8E22270
:0D06A900E58229F582E5833AF583E493228A
:1006B600BB010689828A83F0225002F722BBFE0123
:0206C600F3221D
:0E06C800C3E49FFFE49EFEE49DFDE49CFC2243
:1006D600FAE6FB0808E6F925F0F618E6CA3AF62225
:1006E600D083D082F8E4937012740193700DA3A3A3
:1006F60093F8740193F5828883E4737402936860B7
:06070600EFA3A3A380DFB6
:100EFA00EFB40A07740D120F05740A309811A899F5
:100F0A00B8130CC2983098FDA899C298B811F63057
:070F1A0099FDC299F599222F
:100D5F00020EA9E493A3F8E493A34003F68001F2F3
:100D6F0008DFF48029E493A3F85407240CC8C33395
:100D7F00C4540F4420C8834004F456800146F6DF64
:100D8F00E4800B010204081020408090100DE47ED7
:100D9F00019360BCA3FF543F30E509541FFEE49359
:100DAF00A360010ECF54C025E060A840B8E493A320
:100DBF00FAE493A3F8E493A3C8C582C8CAC583CA4B
:100DCF00F0A3C8C582C8CAC583CADFE9DEE780BE03
:01101A0000D5
:00000001FF
